:020000040000FA
:0400000078EF06F09F
:10000800D8CF60F0E0CF61F00001626FF3CF63F00A
:10001800F4CF64F0F6CF65F0F7CF66F0F8CF67F06D
:10002800F5CF68F08B709EA251D01D0ECA6E9E92BD
:10003800010E9C6F070E00019C6104D0963797371C
:100048009C2BF8D797C0BEFF000196AFBD9A96BF0C
:10005800BD8A96ADBD9896BDBD8895A107D0180EEE
:100068009B6502D0959102D000019B2B000195A1C0
:100078009B0700019B53D8A419D09EA2FED79E923D
:100088000D0ECA6EBE6ABD9ABD989EA2FED79E92FC
:10009800050ECA6EBE6ABD9ABD988C700001958126
:1000A800010E9B6F050E9D6301D09D6B00019B5156
:1000B8006DEC08F000019A6F9A519803F3CF96F00F
:1000C800F4CF97F09A519903F350972763C0F3FF41
:1000D80064C0F4FF65C0F6FF66C0F7FF67C0F8FFAD
:1000E80068C0F5FF0001625161C0E0FF60C0D8FF41
:1000F80010004E0E916F0400912F7FEF00F085EFF6
:1001080000F0040012000F0E916FB10E926F040000
:100118008EEF00F0922F8BEF00F0912F89EF00F017
:1001280096EF00F098EF00F004001200120E7F6EB8
:10013800370E7F6EC90E7F6E04007F2EA0EF00F091
:100148007F2E9EEF00F07F2E9CEF00F0ACEF00F0CA
:1001580004001200170E7B6F3B0E7C6FEB0E7D6F59
:10016800040004007D2FB4EF00F07C2FB2EF00F004
:100178007B2FB0EF00F01200360E7F6EBC0E7F6E44
:10018800C40E7F6E04007F2EC6EF00F07F2EC4EFF2
:1001980000F07F2EC2EF00F0D2EF00F00400120052
:1001A80000017C6F819800007CA981907CB98180D6
:1001B80000007CAB81927CBB818200007CAD819485
:1001C8007CBD818400007CAF81967CBF8186000065
:1001D800818A8FDF819A12000001906F90A9819027
:1001E80090B98180000090AB819290BB8182000021
:1001F80090AD819490BD8184000090AF819690BFAE
:10020800818681DF819875DF818A73DF819A7BDF40
:100218007ADF0001903B90A9819090B9818000001D
:1002280090AB819290BB8182000090AD819490BD8B
:100238008184000090AF819690BF8186000063DFC3
:10024800819857DF818A55DF819A5DDF5CD700018D
:100258007C6F7CA981907CB9818000007CAB819205
:100268007CBB818200007CAD81947CBD81840000D0
:100278007CAF81967CBF8186000081883ADF818AC5
:1002880038DF819A010E00017D6F070E00017D6144
:1002980004D02FDF00017D2BF8D700017C3B7CA91F
:1002A80081907CB9818000007CAB81927CBB81828B
:1002B80000007CAD81947CBD818400007CAF819678
:1002C8007CBF818600001FDF81881DDF818A11DFE6
:1002D800819A010E00017D6F070E00017D6104D037
:1002E80008DF00017D2BF8D70C0E76D700017C6F54
:1002F800300E7C277CA981907CB9818000007CAB82
:1003080081927CBB818200007CAD81947CBD81841C
:1003180000007CAF81967CBF818600008188E9DE81
:10032800818AE7DE819A010E00017D6F070E0001C8
:100338007D6104D0DEDE00017D2BF8D700017C3B17
:100348007CA981907CB9818000007CAB81927CBBC8
:10035800818200007CAD81947CBD818400007CAFEB
:1003680081967CBF8186CFDE8188CDDE818AC1DE21
:10037800819A010E00017D6F070E00017D6104D096
:10038800B8DE00017D2BF8D70C0E26D70400010E2D
:1003980000017B6F150E00017B6104D0B4DE000103
:1003A8007B2BF8D7300EFCDE010E00017B6F060EAA
:1003B80000017B6104D0A7DE00017B2BF8D7300E4B
:1003C800EFDE010E00017B6F0B0E00017B6104D094
:1003D80090DE00017B2BF8D7300EE2DE010E000123
:1003E8007B6F0B0E00017B6104D083DE00017B2B49
:1003F800F8D7200ED5DE280EEFDE0C0EEDDE020E4D
:10040800EBD600017D6F7C51010AD8B40AD0030AEB
:10041800D8B40CD0010AD8B40ED0070AD8B410D07A
:1004280016D07F0E00017D25D7DE11D0BF0E00014A
:100438007D25D2DE0CD0930E00017D25CDDE07D0C0
:10044800D30E00017D25C8DE02D00C0EC5D61200E1
:100458007F6E7F50010AD8B40AD0030AD8B40AD0F4
:10046800010AD8B40AD0070AD8B40AD00BD0800E33
:10047800B3DE08D0C00EB0DE05D0940EADDE02D0DB
:10048800D40EAADE010E7F6E150E7F6004D0200EFA
:10049800DEDE7F2AF9D70C0E9FD6010E9DD67F503F
:1004A800010AD8B40AD0030AD8B40BD0010AD8B4C8
:1004B8000CD0070AD8B40DD012D07F0E7F248CDE62
:1004C8000ED0BF0E7F2488DE0AD0930E7F2484DEF0
:1004D80006D0D30E7F2480DE02D00C0E7DDE7FB0E6
:1004E80011D0020E7F6E7F6A7F6AE80E7F5C030E72
:1004F8007F58D8A04DD03E0EAADE450EA8DE720E5B
:10050800A6DE3BD1010E7F6E100E7F5C270E7F5852
:10051800D8A007D03E0E9BDE450E99DE720E97DE00
:100528002CD17FCF7FFF7FCF7FFF7F507F6E7F50A3
:100538007F6E7F6A7F6A100E7F6E7F367F367F36CA
:100548007F36E80E7F5C030E7F58D8A005D0E80EF2
:100558007F5E030E7F5AD8807F367F367F2EEDD799
:100568007F507F6E7F507F6E7F6A7F6A100E7F6E2E
:100578007F367F367F367F36E80E7F5C030E7F58E6
:10058800D8A004D0E80E7F5E030E7F5A7F2EF0D7E6
:100598007F507F6E7F507F6E7F6A100E7F6E7F3632
:1005A8007F367F36D8B004D0640E7F5CD8A003D0E5
:1005B800640E7F5ED8807F367F367F2EF0D77F50DF
:1005C8007F6E7F507F6E7F6A100E7F6E7F367F361C
:1005D8007F36D8B004D0640E7F5CD8A002D0640EF9
:1005E8007F5E7F2EF3D77F507F6E7F6A080E7F6E07
:1005F8007F367F360A0E7F5CD8A003D00A0E7F5E56
:10060800D8807F367F2EF4D77F507F6E7F6A080EA2
:100618007F6E7F367F360A0E7F5CD8A002D00A0E26
:100628007F5E7F2EF6D77FCF7FFF070E7F60A5D036
:1006380004007F2C0BD07F507F10D8A405D07FB04A
:1006480003D0200E7F6E02D07FCF7FFF020E7F6225
:100658000FD07F507F10D8A409D07F507F10D8A426
:1006680005D07FB003D0200E7F6E02D07FCF7FFFF2
:10067800030E7F620AD07FA007D07FB003D02E0E72
:100688007F6E03D07F2A01D07F2A040E7F6212D0AA
:100698007F507F10D8A40CD07F507F10D8A408D0EA
:1006A8007F50D8A405D07FB003D0200E7F6E02D033
:1006B8007FCF7FFF050E7F620AD07FB007D07FB063
:1006C80003D02E0E7F6E03D07F2A01D07F2A060E1C
:1006D8007F6202D07FCF7FFF7F502E0AD8B406D02A
:1006E8007F50200AD8B402D0300E7F267FA8819090
:1006F8007FB8818000007FAA81927FBA8182000042
:100708007FAC81947FBC818400007FAE81967FBEE0
:10071800818600008188EDDC818AEBDC819A010EFC
:100728007F6E070E7F6003D0E4DC7F2AFAD77F3A1A
:100738007FA881907FB8818000007FAA81927FBACC
:10074800818200007FAC81947FBC818400007FAEF1
:1007580081967FBE8186D7DC8188D5DC818AC9DC19
:10076800819A010E7F6E070E7F6003D0C2DC7F2A5C
:10077800FAD70C0E31DD7F2A58D7120000017C51C0
:10078800010AD8B40AD0030AD8B40CD0010AD8B4E4
:100798000ED0070AD8B410D016D07F0E00017D25E0
:1007A8001BDD11D0BF0E00017D2516DD0CD0930E88
:1007B80000017D2511DD07D0D30E00017D250CDD5C
:1007C80002D00C0E09DD7EC080F07FC081F00001F0
:1007D8008051916F8151926F936B946B100E906F53
:1007E80000019137923793379437100E935D270E97
:1007F8009459D8A006D0100E0001935F270E945B81
:10080800D880000186378737902FEAD78051916FBB
:100818008151926F806B816B100E906F0001913740
:10082800923780378137100E805D270E8159D8A006
:1008380005D0100E0001805F270E815B0001902F0C
:10084800EDD78051916F8151926F936B946B100E1D
:10085800906F00019137923793379437E80E935D84
:10086800030E9459D8A006D0E80E0001935F030E3A
:10087800945BD880000182378337902FEAD7805164
:10088800916F8151926F7E6B7F6B100E906F00019C
:10089800913792377E377F37E80E7E5D030E7F599A
:1008A800D8A005D0E80E00017E5F030E7F5B000133
:1008B800902FEDD77E51916F7F51926F936B100EF1
:1008C800906F0001913792379337D8B004D0640EF7
:1008D800935DD8A004D0640E0001935FD880000116
:1008E80084378537902FEDD77E51916F7F51926F66
:1008F8008A6B100E906F0001913792378A37D8B003
:1009080004D0640E8A5DD8A003D0640E00018A5F0B
:100918000001902FF0D78A51916F926B080E906F5B
:100928000001913792370A0E925DD8A004D00A0EC2
:100938000001925FD88000018837902FF1D78A5143
:10094800916F896B080E906F0001913789370A0EF5
:10095800895DD8A003D00A0E0001895F0001902F9D
:10096800F3D78C6B050E00018C61B4D08C51D8B4D0
:100978000DD0010AD8B415D0030AD8B421D0010A81
:10098800D8B431D0070AD8B444D045D00001865134
:100998008711D8A403D0200E8E6F3DD086C08EF06C
:1009A8003AD0000182518311D8A407D0865187110B
:1009B800D8A403D0200E8E6F2ED082C08EF02BD0FC
:1009C800000186518711D8A40BD082518311D8A475
:1009D80007D084518511D8A403D0200E8E6F1BD068
:1009E80084C08EF018D0000182518311D8A40ED093
:1009F80084518511D8A40AD08853D8A407D0865129
:100A08008711D8A403D0200E8E6F05D088C08EF031
:100A180002D089C08EF000018E51200AD8B402D0CD
:100A2800300E8E2700018EA981908EB9818000003A
:100A38008EAB81928EBB818200008EAD81948EBD7B
:100A4800818400008EAF81968EBF818600008188E8
:100A58007DEC00F0818A7DEC00F0819A010E0001A6
:100A68008B6F070E00018B6105D07DEC00F0000153
:100A78008B2BF7D700018E3B8EA981908EB9818090
:100A880000008EAB81928EBB818200008EAD819476
:100A98008EBD818400008EAF81968EBF818687ECE3
:100AA80000F0818887EC00F0818A7DEC00F0819A63
:100AB800010E00018B6F070E00018B6105D07DECE4
:100AC80000F000018B2BF7D70C0EF0EC00F00001C2
:100AD8008C2B48D71200400EF0EC00F07DEC00F0B3
:100AE80000017B6B080E00017B610CD01A0E7B2580
:100AF800F0DA2BEC01F07DEC00F07DEC00F0000169
:100B08007B2BF0D700017B6B080E00017B610CD0BA
:100B1800220E7B25DEDA2BEC01F07DEC00F07DEC7B
:100B280000F000017B2BF0D700017B6B080E000161
:100B38007B610CD02A0E7B25CCDA2BEC01F07DEC06
:100B480000F07DEC00F000017B2BF0D700017B6BFF
:100B5800080E00017B610CD0320E7B25BADA2BEC33
:100B680001F07DEC00F07DEC00F000017B2BF0D76C
:100B780000017B6B080E00017B610CD03A0E7B25CF
:100B8800A8DA2BEC01F07DEC00F07DEC00F0000120
:100B98007B2BF0D700017B6B080E00017B610CD02A
:100BA800420E7B2596DA2BEC01F07DEC00F07DEC13
:100BB80000F000017B2BF0D700017B6B080E0001D1
:100BC8007B610CD04A0E7B2584DA2BEC01F07DEC9E
:100BD80000F07DEC00F000017B2BF0D700017B6B6F
:100BE800080E00017B610CD0520E7B2572DA2BECCB
:100BF80001F07DEC00F07DEC00F000017B2BF0D7DC
:100C0800020EF0EF00F000017D6F7C51D8B428D0BF
:100C1800010AD8B428D0030AD8B428D0010AD8B415
:100C280028D0070AD8B428D0010AD8B428D0030A93
:100C3800D8B428D0010AD8B428D00F0AD8B428D0FC
:100C4800010AD8B428D0030AD8B428D0010AD8B4E5
:100C580028D0070AD8B428D0010AD8B428D02AD076
:100C6800010EC26E29D0050EC26E26D0090EC26EC4
:100C780023D00D0EC26E20D0110EC26E1DD0150EDF
:100C8800C26E1AD0190EC26E17D01D0EC26E14D0C5
:100C9800210EC26E11D0250EC26E0ED0290EC26E64
:100CA8000BD02D0EC26E08D0310EC26E05D0350E97
:100CB800C26E02D0010EC26E080E00017D6309D01B
:100CC800C09EC282C2B2FED7C4CF7EF000017F6B45
:100CD80008D0C08EC282C2B2FED7C3CF7EF0C4CFC6
:100CE8007FF000017E511200F29EDDD9410ED56ED3
:100CF800040EF16EF2948C90020E0001986F996BBD
:100D0800400EF26E9B6B966B976B9581010E9C6FF4
:100D1800070E00019C6104D0963797379C2BF8D7B3
:100D280097C0BEFF000196AFBD9A96BFBD8A96AD2B
:100D3800BD9896BDBD889E929D82F28ECA849B2BDB
:100D48009B51C7D900019A6F9A519803F3CF96F037
:100D5800F4CF97F09A519903F35097279D6B776BCF
:100D68007A97400E9B6E7F0ED06E700ED36ECAECD3
:100D780001F051EC02F0AEEC00F0ADDEAEEC00F0AC
:100D880051EC02F0010E00017C6F010E05EC02F03F
:100D98000001786B130E0001786108D05A0E78258F
:100DA80098D92BEC01F00001782BF4D7000E2BEC2E
:100DB80001F0020E00017C6F010E05EC02F000014B
:100DC800786B070E0001786108D06D0E782581D9FF
:100DD8002BEC01F00001782BF4D7030E00017C6F97
:100DE800010E05EC02F00001786B050E0001786138
:100DF80008D0740E78256DD92BEC01F00001782B02
:100E0800F4D7040E00017C6F010E05EC02F000011E
:100E1800786B0D0E0001786108D0790E782559D9C4
:100E28002BEC01F00001782BF4D78E0EC06E827285
:100E380000019D51D8B410D0010AD8B466D0030A75
:100E4800D8B48CD0010AD8B49AD0070AD8B499D0AB
:100E5800010AD8B4E5D0EBD700016C6B8CA04DD05B
:100E68008288060E00019B6307D06C53D8B419D052
:100E78006C51050AD8B415D00C0E00019B6306D03E
:100E88006C4D0FD06C51040AD8B40BD0140E00016D
:100E98009B6331D06C51020AD8B403D0030E6C6343
:100EA8002AD0828600017C6B080EADDE7EC073F00E
:100EB8008296EA6A6D0E00016C25E96E73C0EFFF39
:100EC8006C2B6CC079F0140E9B6315D0030E6C6309
:100ED80012D07DEC00F07DEC00F07DEC00F07DECB4
:100EE80000F07DEC00F07DEC00F07DEC00F07DEC96
:100EF80000F07DEC00F08298B1D7010E00019D6FE3
:100F0800050E6C6194D79D6B92D70001786B060E25
:100F1800000178611FD0EA6A6D0E7825E96EEFCF7F
:100F280073F0860E7825D5D80001746F7853D8B43D
:100F380003D0050E786305D000017451735D756F99
:100F480006D00001784D03D0040E786300D000016C
:100F5800782BDDD7040E00019D6F69D7020E0001C2
:100F68009D6365D79B51060AD8B407D09B510F0AD9
:100F7800D8B403D0140E9B63F1D70000EFD700005C
:100F880056D7010E00017C6F080E3DDE7EC07BF057
:100F9800D80E00017B6503D0010E766F3DD0AD0EF3
:100FA80000017B6506D0D70E7B6103D0020E766FF9
:100FB80033D0850E00017B6506D0AC0E7B6103D073
:100FC800030E766F29D0570E00017B6506D0820E7E
:100FD8007B6103D0040E766F1FD02B0E00017B655A
:100FE80006D0550E7B6103D0050E766F15D02B0EFB
:100FF80000017B6111D0772B060E776102D0060EB7
:10100800766F060E0001776502D0070E766F0A0E1E
:101018000001776301D0776B050E00019D6F07D73C
:1010280000017AA71ED0020E7C6F090E05EC02F0B3
:1010380000019D517AEC01F0030E00017C6F090E4E
:1010480005EC02F0000198517AEC01F0030E000162
:101058007C6F100E7D6F7BC07EF07F6BC2EC03F05F
:101068001ED0040E00017C6F0E0E05EC02F000018C
:101078006C517AEC01F0040E00017C6F140E05EC43
:1010880002F0000176512BEC01F0020E00017C6F9A
:10109800100E7D6F6DC07EF07F6BC2EC03F0000117
:1010A8007A779D6BC4D6400E9B6E7F0ED06E700E05
:1010B800D36E0F0E926E936A946A956A8A6A826AF0
:1010C800836A090ECA6EC70ECB6E8C0EBD6EB76AE8
:1010D80012000001696F6951F20FF66E100EF76A7F
:1010E800F722F86A0800F5501200000810171F27A9
:1010F8002F363D444B51575D62676C707377797B2F
:101108007D7E7F800C1008041B040403EEFFFFFFA4
:10111800FFFFFFFFEEFFF1FFFFFFFFFFEEFFF1F123
:10112800FFFFFFFFEEFFF1F1F1FFFFFFEEFFF1F12F
:10113800F1F1FFFFEEFFF1F1F1F1F1FF0000000026
:10114800000000004F4E44554C41444F522035306A
:10115800485A202062792045535441444F3A564D0D
:1011680041583A4C454354555241535F5641433ACE
:0611780064646464646419
:020000040030CA
:08000000FF080116FF8881FFD3
:00000001FF
