:020000040000FA
:040000007BEF09F099
:10000800D8CF60F0E0CF61F00001626FF3CF63F00A
:10001800F4CF64F0F6CF65F0F7CF66F0F8CF67F06D
:10002800F5CF68F09EA27BD01D0ECA6E9E92010E7F
:10003800D66F070E0001D66104D0CC37CD37D62B4A
:10004800F8D7CDC0BEFF0001CCAFBD9ACCBFBD8AEA
:10005800CCADBD98CCBDBD88CBA107D0180ED56559
:1000680002D0CB9102D00001D52B0001CBA1D5073E
:100078000001D553D8A419D09EA2FED79E920D0E8A
:10008800CA6EBE6ABD9ABD989EA2FED79E92050E04
:10009800CA6EBE6ABD9ABD988C700001CB81010EF4
:1000A800D56F040ED76301D0D76B0001CF51D8A408
:1000B80003D03B0ECE6504D03C0E0001CE6FCF6B53
:1000C8000001D55162EC0DF00001D36FD46BD35110
:1000D800CE03F3CFCCF0F4CFCDF0D451CE03F35010
:1000E800CD27D351CF03F350CD27CC516A6FCD51D3
:1000F8006B6F6C6B100E696F00016A376B376C376A
:10010800D8B004D00A0E6C5DD8A004D00A0E000145
:100118006C5FD8800001CC37CD37692FEDD763C02D
:10012800F3FF64C0F4FF65C0F6FF66C0F7FF67C061
:10013800F8FF68C0F5FF0001625161C0E0FF60C0D0
:10014800D8FF10000001B151BC6FB419BD6FB25196
:10015800D8A4B551D8B44AD00001B2277E0ED8A091
:1001680004D0B25FD8A005D044D00001B25FD8A0B7
:100178003BD0B0C0BBF00001BC8FB48FB06BB16B8B
:10018800B351BB03F4CFBEF0B451BB03F350BE2749
:10019800F450B023000EB123B351BC03F350BE2773
:1001A800F450B023000EB123B451BC03F350B02770
:1001B800F450B123B1BF09D0BE37B037B137B2530D
:1001C800D8B412D00001B207BE350001D8AD18D09E
:1001D800D8A016D0B03F14D0B13F12D0D880B133D8
:1001E800B033B23F0DD005D00001D8850001B26B05
:1001F80003D00001D883B2690001B06B800EB16FE3
:100208000001BDAFB19F0001B05112000001B5510E
:10021800B25DBD6FD8B013D0BD6DB2C0BCF0B5C073
:10022800B2F0BCC0B5F0B1C0BCF0B4C0B1F0BCC055
:10023800B4F0B0C0BCF0B3C0B0F0BCC0B3F0110EA5
:100248000001BD6501D086D00001B553D8B482D075
:100258000001BB6BB151BC6FB419BE6FB18FB48FC5
:10026800080E0001BD5FD8A007D0B3C0BBF0B4C072
:10027800B3F00001B46BF4D70001BD27D8B407D0A0
:10028800D8900001B433B333BB33BD2FF9D7000185
:10029800BEAF39D0B351B05FB451B15BD8B007D05D
:1002A800D880000EB057000EB157800EBC1B00015D
:1002B800BB6DD8B403D0B007000EB15B030E0001CC
:1002C800BD6F0001B153D8A40DD0B0C0B1F0BBC010
:1002D800B0F0BB6B080EB25FD8A02FD00001BD2FC5
:1002E800F0D72BD00001B1BF07D0D890BB37B037BB
:1002F800B137B22FF7D721D00001D8AD28D0BBAF86
:1003080026D0BB6B12D00001B351B027B451B12332
:10031800D8A006D00001B133B033BB33B24B10D0F4
:100328000001D8AD14D0BBAF12D00001B03F0FD040
:10033800B13F0DD0D880B091EDD70001B26B03D09A
:100348000001D883B2690001B06B800EB16F000163
:10035800BCAFB19F0001B0511200800E0001B41B68
:1003680055DF0001B05112008E0E0001B66FB76B59
:10037800B86BB2AF08D0D880000EB057000EB15796
:10038800000EB257B88F0001B253D8B409D0080E86
:10039800B627B0C0B7F0B1C0B0F0B2C0B1F012D05B
:1003A8000001B153D8A40ED0080EB65FB051D8B42E
:1003B8001DD00001B16FB06B05D00001B737B03761
:1003C800B137B6070001B1AFF8D7D8AD0AD0B7AF8B
:1003D80008D0B03F06D0B13F04D0D880B133B03395
:1003E800B62BB6C0B2F00001B8AFB19F0001B05152
:1003F8001200B1C0B6F07E0E0001B25DB76FD8A092
:1004080032D00001B18FB26BB86BB7511008B76F1B
:10041800D8B00BD0080EB727D8A021D0B1C0B2F001
:10042800B0C0B1F00001B06B0BD0080E0001B75D91
:10043800D8A006D0B76FB0C0B8F0B1C0B0F0B16BFB
:100448000001B753D8B408D0D8900001B233B13303
:10045800B033B833B72FF8D70001B2AF0BD00001D3
:10046800D883FF0E01D0000E0001B06FB16FB26FDC
:10047800B29F11D00001D8AD04D0B8AF02D0B04BB4
:10048800B12B0001B6AF07D0D880000EB057000ED0
:10049800B157000EB2570001B05112000001C66FEB
:1004A800C76B110EC86F0BD00001C737C937C651CB
:1004B800C75DC9B1D880D8A002D00001C76F0001BC
:1004C800C437C537C82FF0D7C45112000001C86B14
:1004D800C96B110ECA6F0ED00001C837C937C65193
:1004E800C85DC751C959D8A005D00001C96FC65108
:1004F800C85FD8800001C437C537CA2FEDD7C451AB
:1005080012000001C66FC76B100EC86F0001C43718
:10051800C537C737C937C651C75DC9B1D880D8A054
:1005280002D00001C76F0001C82FF0D7C7511200D1
:100538000001C86BC96B100ECA6F0001C437C537FC
:10054800C837C937C651C85DC751C959D8A004D0E2
:100558000001C96FC651C85F0001CA2FEED7C85144
:1005680012000001B1BFA1D00001B253D8B49FD08E
:10057800B2C0B6F0D8C0B7F00001D88D7F0EB26F08
:10058800B0C0B8F0B1C0B9F0B2C0BAF0B1AD3DD0AA
:10059800A70EB36FB80EB46F770EB56FD3DD790EB3
:1005A8000001B36F610EB46F7A0EB56F2FDEB8C05D
:1005B800B3F0B9C0B4F0BAC0B5F0C4DD310E000173
:1005C800B36FF50EB46F7C0EB56F20DEB8C0B3F014
:1005D800B9C0B4F0BAC0B5F0B5DDC10E0001B36F53
:1005E800540EB46F7E0EB56F11DEB8C0B3F0B9C04B
:1005F800B4F0BAC0B5F0A6DD220E0001B36F380E14
:10060800B46F7D0EB56F02DE3DD0360E0001B36FBC
:10061800990EB46F790EB56F95DD370E0001B36F83
:10062800050EB46F7C0EB56FF1DDB8C0B3F0B9C07C
:10063800B4F0BAC0B5F086DDC90E0001B36FCD0EB7
:10064800B46F7D0EB56FE2DDB8C0B3F0B9C0B4F0D9
:10065800BAC0B5F077DD020E0001B36F7D0EB46F3E
:100668007E0EB56FD3DDB8C0B3F0B9C0B4F0BAC070
:10067800B5F068DDBD0E0001B36F1A0EB46F7D0EC4
:10068800B56FC4DD0001B6B107D0050EB36F350EE6
:10069800B46F7F0EB56F56DD7F0E0001B627B631F9
:1006A800B26FB7BD04D0D89D02D00001D88B00012D
:1006B800B05112004E0EC56F0400C52F60EF03F055
:1006C80066EF03F0040012000F0EC56FB10EC66F7F
:1006D80004006FEF03F0C62F6CEF03F0C52F6AEF2D
:1006E80003F077EF03F079EF03F004001200120E25
:1006F8007F6E370E7F6EC90E7F6E04007F2E81EFEE
:1007080003F07F2E7FEF03F07F2E7DEF03F08DEF58
:1007180003F004001200170E7F6E3B0E7F6EEB0E87
:100728007F6E040004007F2E95EF03F07F2E93EF79
:1007380003F07F2E91EF03F01200360E7F6EBC0E91
:100748007F6EC40E7F6E04007F2EA7EF03F07F2E0E
:10075800A5EF03F07F2EA3EF03F0B3EF03F004003F
:1007680012000001A86F819A0000A8A98196A8B973
:1007780081860000A8AB8194A8BB81840000A8AD45
:100788008192A8BD81820000A8AF8190A8BF818016
:10079800000081888FDF819812000001C46FC4A90E
:1007A8008196C4B981860000C4AB8194C4BB81849E
:1007B8000000C4AD8192C4BD81820000C4AF8190A5
:1007C800C4BF818081DF819A75DF818873DF81985A
:1007D8007BDF7ADF0001C43BC4A98196C4B9818656
:1007E8000000C4AB8194C4BB81840000C4AD819275
:1007F800C4BD81820000C4AF8190C4BF8180000065
:1008080063DF819A57DF818855DF81985DDF5CD788
:100818000001A86FA8A98196A8B981860000A8AB95
:100828008194A8BB81840000A8AD8192A8BD818273
:100838000000A8AF8190A8BF81800000818A3ADFBC
:10084800818838DF8198010E0001A96F070E000129
:10085800A96104D02FDF0001A92BF8D70001A83B1C
:10086800A8A98196A8B981860000A8AB8194A8BBE5
:1008780081840000A8AD8192A8BD81820000A8AF44
:100888008190A8BF818000001FDF818A1DDF8188D9
:1008980011DF8198010E0001A96F070E0001A961FF
:1008A80004D008DF0001A92BF8D70C0E76D77F6E8D
:1008B800300E7F267FA881967FB8818600007FAAA8
:1008C80081947FBA818400007FAC81927FBC818251
:1008D80000007FAE81907FBE81800000818AEADEC1
:1008E8008188E8DE8198010E7F6E070E7F6003D055
:1008F800E1DE7F2AFAD77F3A7FA881967FB8818682
:1009080000007FAA81947FBA818400007FAC819225
:100918007FBC818200007FAE81907FBE8180D4DE63
:10092800818AD2DE8188C6DE8198010E7F6E070E2D
:100938007F6003D0BFDE7F2AFAD70C0E2ED70400C3
:10094800010E0001A76F150E0001A76104D0BCDEDF
:100958000001A72BF8D7300E04DF010E0001A76FA6
:10096800060E0001A76104D0AFDE0001A72BF8D75F
:10097800300EF7DE010E0001A76F0B0E0001A76114
:1009880004D098DE0001A72BF8D7300EEADE010E5E
:100998000001A76F0B0E0001A76104D08BDE0001D8
:1009A800A72BF8D7200EDDDE280EF7DE0C0EF5DEBD
:1009B800020EF3D60001A86FA751010AD8B40AD0D5
:1009C800030AD8B40CD0010AD8B40ED0070AD8B498
:1009D80010D016D07F0E0001A825DFDE11D0BF0E83
:1009E8000001A825DADE0CD0930E0001A825D5DE7B
:1009F80007D0D30E0001A825D0DE02D00C0ECDD62C
:100A080012007F6E7F50010AD8B40AD0030AD8B406
:100A18000AD0010AD8B40AD0070AD8B40AD00BD031
:100A2800800EBBDE08D0C00EB8DE05D0940EB5DE51
:100A380002D0D40EB2DE010E7F6E150E7F6004D098
:100A4800200EE6DE7F2AF9D70C0EA7D6010EA5D612
:100A58007F50010AD8B40AD0030AD8B40BD0010ACF
:100A6800D8B40CD0070AD8B40DD012D07F0E7F248A
:100A780094DE0ED0BF0E7F2490DE0AD0930E7F2422
:100A88008CDE06D0D30E7F2488DE02D00C0E85DEE5
:100A98007FB011D0020E7F6E7F6A7F6AE80E7F5C9E
:100AA800030E7F58D8A036D03E0EB2DE450EB0DE1B
:100AB800720EAEDEF9D0010E7F6E100E7F5C270E2F
:100AC8007F58D8A007D03E0EA3DE450EA1DE720ED9
:100AD8009FDEEAD07FCF7FFF7FCF7FFF7FCFC4F03D
:100AE8007FCFC5F0E80E0001C66F030EC76FEEDCBE
:100AF800C4C07FFFC5C07FFF7FCFC4F07FCFC5F0E4
:100B0800E80E0001C66F030EC76F12DDC8C07FFF75
:100B1800C9C07FFF7FCFC4F07FCFC5F0640EBEDCB5
:100B2800C4C07FFFC5C07FFF7FCFC4F07FCFC5F0B3
:100B3800640EE7DC7F6E7FCFC4F00001C56B0A0E40
:100B4800ADDCC4C07FFF7FCFC4F00001C56B0A0EC7
:100B5800D8DC7F6E7FCF7FFF070E7F60A5D00400B3
:100B68007F2C0BD07F507F10D8A405D07FB003D046
:100B7800200E7F6E02D07FCF7FFF020E7F620FD0E4
:100B88007F507F10D8A409D07F507F10D8A405D0FB
:100B98007FB003D0200E7F6E02D07FCF7FFF030E81
:100BA8007F620AD07FA007D07FB003D02E0E7F6E61
:100BB80003D07F2A01D07F2A040E7F6212D07F5093
:100BC8007F10D8A40CD07F507F10D8A408D07F50B5
:100BD800D8A405D07FB003D0200E7F6E02D07FCF7F
:100BE8007FFF050E7F620AD07FB007D07FB003D0A9
:100BF8002E0E7F6E03D07F2A01D07F2A060E7F62D9
:100C080002D07FCF7FFF7F502E0AD8B406D07F5006
:100C1800200AD8B402D0300E7F267FA881967FB8EC
:100C2800818600007FAA81947FBA818400007FAC0E
:100C380081927FBC818200007FAE81907FBE8180DF
:100C48000000818A37DD818835DD8198010E7F6E4D
:100C5800070E7F6003D02EDD7F2AFAD77F3A7FA860
:100C680081967FB8818600007FAA81947FBA8184AB
:100C780000007FAC81927FBC818200007FAE8190B2
:100C88007FBE818021DD818A1FDD818813DD819807
:100C9800010E7F6E070E7F6003D00CDD7F2AFAD726
:100CA8000C0E7BDD7F2A58D712000001B051010AD3
:100CB800D8B40AD0030AD8B40CD0010AD8B40ED0DC
:100CC800070AD8B410D016D07F0E0001B12565DD13
:100CD80011D0BF0E0001B12560DD0CD0930E0001CC
:100CE800B1255BDD07D0D30E0001B12556DD02D05A
:100CF8000C0E53DDB2C0B4F0B3C0B5F0B4C0C4F04C
:100D0800B5C0C5F0100E0001C66F270EC76F6AEC9C
:100D180002F0C4C0BAF0C5C0BBF0B4C0C4F0B5C0DE
:100D2800C5F0100E0001C66F270EC76F01DCC8C0E2
:100D3800B4F0C9C0B5F0B4C0C4F0B5C0C5F0E80E91
:100D48000001C66F030EC76F6AEC02F0C4C0B6F0AC
:100D5800C5C0B7F0B4C0C4F0B5C0C5F0E80E000116
:100D6800C66F030EC76F9CEC02F0C8C0B2F0C9C0D2
:100D7800B3F0B2C0C4F0B3C0C5F0640E52EC02F0D8
:100D8800C4C0B8F0C5C0B9F0B2C0C4F0B3C0C5F0B3
:100D9800640E85EC02F00001BE6FBEC0C4F0C56BE6
:100DA8000A0E52EC02F0C4C0BCF0BEC0C4F0000190
:100DB800C56B0A0E85EC02F00001BD6FC06B050E15
:100DC8000001C061B1D0C051D8B40DD0010AD8B467
:100DD80015D0030AD8B421D0010AD8B431D0070AF3
:100DE800D8B444D045D00001BA51BB11D8A403D01F
:100DF800200EC26F3DD0BAC0C2F03AD00001B65141
:100E0800B711D8A407D0BA51BB11D8A403D0200E6B
:100E1800C26F2ED0B6C0C2F02BD00001BA51BB11A0
:100E2800D8A40BD0B651B711D8A407D0B851B9116E
:100E3800D8A403D0200EC26F1BD0B8C0C2F018D0FF
:100E48000001B651B711D8A40ED0B851B911D8A421
:100E58000AD0BC53D8A407D0BA51BB11D8A403D028
:100E6800200EC26F05D0BCC0C2F002D0BDC0C2F017
:100E78000001C251200AD8B402D0300EC2270001A6
:100E8800C2A98196C2B981860000C2AB8194C2BB57
:100E980081840000C2AD8192C2BD81820000C2AFD0
:100EA8008190C2BF81800000818A04DC818802DCD5
:100EB8008198010E0001BF6F070E0001BF6105D0C8
:100EC8005EEC03F00001BF2BF7D70001C23BC2A9BB
:100ED8008196C2B981860000C2AB8194C2BB81846D
:100EE8000000C2AD8192C2BD81820000C2AF819074
:100EF800C2BF818068EC03F0818A68EC03F08188C6
:100F08005EEC03F08198010E0001BF6F070E00012F
:100F1800BF6105D05EEC03F00001BF2BF7D70C0EC4
:100F28003CDC0001C02B4BD712000001B26FB0515E
:100F3800010AD8B40AD0030AD8B40CD0010AD8B42C
:100F48000ED0070AD8B410D016D07F0E0001B125F4
:100F580024DC11D0BF0E0001B1251FDC0CD0930E8C
:100F68000001B1251ADC07D0D30E0001B12515DC2C
:100F780002D00C0E12DCB2C0C4F00001C56B640EC6
:100F880052EC02F0C4C0B4F0B2C0C4F00001C56BAA
:100F9800640E85EC02F00001B76FB7C0C4F0C56BF2
:100FA8000A0E52EC02F0C4C0B5F0B7C0C4F000019C
:100FB800C56B0A0E85EC02F00001B66FB96B030E23
:100FC8000001B96182D0B951D8B407D0010AD8B4A8
:100FD8000ED0030AD8B418D019D00001B453D8A43D
:100FE80003D0200EBB6F12D0B4C0BBF00FD00001ED
:100FF800B453D8A406D0B553D8A403D0200EBB6FE1
:1010080005D0B5C0BBF002D0B6C0BBF00001BB51E3
:10101800200AD8B402D0300EBB270001BBA98196A4
:10102800BBB981860000BBAB8194BBBB8184000047
:10103800BBAD8192BBBD81820000BBAF8190BBBFBD
:1010480081800000818A5EEC03F081885EEC03F009
:101058008198010E0001B86F070E0001B86105D034
:101068005EEC03F00001B82BF7D70001BB3BBBA92E
:101078008196BBB981860000BBAB8194BBBB8184E0
:101088000000BBAD8192BBBD81820000BBAF8190E7
:10109800BBBF818068EC03F0818A68EC03F081882B
:1010A8005EEC03F08198010E0001B86F070E000195
:1010B800B86105D05EEC03F00001B82BF7D70C0E31
:1010C800D1EC03F00001B92B7AD71200400ED1EC15
:1010D80003F05EEC03F00001A76B080E0001A761A6
:1010E8000DD01A0EA72562EC0DF00CEC04F05EECA6
:1010F80003F05EEC03F00001A72BEFD70001A76B0C
:10110800080E0001A7610DD0220EA72562EC0DF094
:101118000CEC04F05EEC03F05EEC03F00001A72B8E
:10112800EFD70001A76B080E0001A7610DD02A0EAA
:10113800A72562EC0DF00CEC04F05EEC03F05EEC1D
:1011480003F00001A72BEFD70001A76B080E0001E1
:10115800A7610DD0320EA72562EC0DF00CEC04F05F
:101168005EEC03F05EEC03F00001A72BEFD7000163
:10117800A76B080E0001A7610DD03A0EA72562ECF7
:101188000DF00CEC04F05EEC03F05EEC03F00001F3
:10119800A72BEFD70001A76B080E0001A7610DD0A0
:1011A800420EA72562EC0DF00CEC04F05EEC03F0A7
:1011B8005EEC03F00001A72BEFD70001A76B080E28
:1011C8000001A7610DD04A0EA72562EC0DF00CECCA
:1011D80004F05EEC03F05EEC03F00001A72BEFD700
:1011E8000001A76B080E0001A7610DD0520EA725BC
:1011F80062EC0DF00CEC04F05EEC03F05EEC03F036
:101208000001A72BEFD7020ED1EF03F00001AD6F5D
:10121800AC51D8B428D0010AD8B428D0030AD8B41D
:1012280028D0010AD8B428D0070AD8B428D0010A8F
:10123800D8B428D0030AD8B428D0010AD8B428D002
:101248000F0AD8B428D0010AD8B428D0030AD8B4D1
:1012580028D0010AD8B428D0070AD8B428D0010A5F
:10126800D8B428D02AD0010EC26E29D0050EC26E7D
:1012780026D0090EC26E23D00D0EC26E20D0110EDC
:10128800C26E1DD0150EC26E1AD0190EC26E17D0BE
:101298001D0EC26E14D0210EC26E11D0250EC26E64
:1012A8000ED0290EC26E0BD02D0EC26E08D0310E94
:1012B800C26E05D0350EC26E02D0010EC26E080E87
:1012C8000001AD6309D0C09EC282C2B2FED7C4CFAE
:1012D800AEF00001AF6B08D0C08EC282C2B2FED79A
:1012E800C3CFAEF0C4CFAFF00001AE511200CCDBDB
:1012F80000016E6B400E9B6E7F0ED06E700ED36E2B
:10130800A3EC04F02AEC05F0E1DE2AEC05F0010E6E
:101318000001A76F010EDEEC04F0410ED56E040E3D
:10132800F16EF2948C900001D06B400ED16F800E5C
:10133800D26F400EF26ED56BCC6BCD6BCB81010EAC
:101348006D6F070E00016D6104D0CC37CD376D2B62
:10135800F8D7CDC0BEFF0001CCAFBD9ACCBFBD8AC7
:10136800CCADBD98CCBDBD889E929D82CA84D52B3C
:10137800D551A4DB0001D36FD46BD3C0B0F0D4C077
:10138800B1F0B26BB8EC01F0D0C0B3F0D1C0B4F09A
:10139800D2C0B5F0A6EC00F0FDEC01F0B0C0CCF086
:1013A800B1C0CDF00001D76B936B946BA691020E80
:1013B800A76F010EDEEC04F0040E0001A76F010E0A
:1013C800DEEC04F0040E0001A76F0A0EDEEC04F058
:1013D800F28EC16A8E0EC06E0001D751D8B40DD0FE
:1013E800010AD8B4FED0030AD8B4D3D1010AD8B4BC
:1013F800D4D1070AD8B440D2EFD700016F6BA6B199
:1014080071D08CA06FD0D0C0B0F0D1C0B1F0D2C034
:10141800B2F0FDEC01F0B0C0CEF0B1C0CFF0050ED7
:101428000001D56307D06F53D8B425D06F51070A90
:10143800D8B421D00A0E0001D56306D06F4D1BD059
:101448006F51060AD8B417D00F0E0001D56308D023
:101458006F51020AD8B40FD06F51050AD8B40BD017
:10146800140E0001D5633BD06F51030AD8B403D0E2
:10147800040E6F6334D082860001AC6B080EC6DEA2
:10148800AEC080F0020E0001AC6F080EBFDEAEC029
:1014980091F08296EA6A700E00016F25E96E80511C
:1014A8007F08EF6EEA6A810E6F25E96E91C0EFFF43
:1014B8006F2B140ED56313D0040E6F6310D05EEC3F
:1014C80003F05EEC03F05EEC03F05EEC03F05EEC20
:1014D80003F05EEC03F05EEC03F05EEC03F0000159
:1014E800A6818FD70001A6A174D0D0C0B0F0D1C01A
:1014F800B1F0D2C0B2F0FDEC01F0B0C0CEF0B1C096
:10150800CFF08CB066D0050E0001D56308D06F51BE
:10151800080AD8B427D06F510F0AD8B423D00A0EBE
:101528000001D56308D06F51090AD8B41BD06F5198
:101538000E0AD8B417D00F0E0001D56308D06F512A
:101548000A0AD8B40FD06F510D0AD8B40BD0140EB4
:101558000001D5633BD06F510B0AD8B403D00C0EF1
:101568006F6334D082860001AC6B080E4FDEAEC0CC
:1015780080F0020E0001AC6F080E48DEAEC091F09C
:10158800826AEA6A700E00016F25E96E7F0E805D3F
:10159800EF6EEA6A810E6F25E96E91C0EFFF6F2B3F
:1015A800140ED56313D00C0E6F6310D05EEC03F0ED
:1015B8005EEC03F05EEC03F05EEC03F05EEC03F02F
:1015C8005EEC03F05EEC03F05EEC03F00001A69124
:1015D80098D7010E0001D76F100E6F61FDD6D76B3B
:1015E800FBD600019B6B9C6B6D6B100E00016D614F
:1015F80012D0EA6A700E6D25E96EEFCF80F0805147
:101608008003F3CFACF0F4CFADF0AC519B27AD51D4
:101618009C236D2BEAD79BC09DF09CC09EF09BC07D
:10162800C4F09CC0C5F000016D5152EC02F0C4C07A
:101638009BF0C5C09CF09BC0B0F09CC0B1F000010D
:10164800B26BB8EC01F0B5EC02F0B0C095F0B1C0E7
:1016580096F0B2C097F095C0B0F096C0B1F097C0C0
:10166800B2F0FDEC01F00A0E0001B003F3CF9FF0D9
:10167800F4CFA0F00A0EB103F350A027660EA76FAF
:101688004E0EA86F840EA96F96BF08D0010E955D07
:10169800140E9659840E9759D8B015D00001B06B26
:1016A800140EB16F840EB26F95C0B3F096C0B4F04B
:1016B80097C0B5F0B1EC01F0B0C095F0B1C096F0AC
:1016C800B2C097F01ED0000196BF1BD0010E955DE9
:1016D800140E9659840E9759D8A013D095C0B0F01F
:1016E80096C0B1F097C0B2F0B36B140EB46F840E0D
:1016F800B56FB1EC01F0B0C095F0B1C096F0B2C0D2
:1017080097F095C0B0F096C0B1F097C0B2F0FDEC7C
:1017180001F0B0C0A1F0B1C0A2F095C0B0F096C081
:10172800B1F097C0B2F09A0E0001B36F190EB46F02
:101738007D0EB56FA6EC00F00001B36B480EB46FD8
:10174800850EB56FA6EC00F0B0C0A3F0B1C0A4F050
:10175800B2C0A5F0A3C0B0F0A4C0B1F0A5C0B2F06B
:101768009A0E0001B36F190EB46F7E0EB56FA6EC1A
:1017780000F0B0C0A3F0B1C0A4F0B2C0A5F0A3C0FF
:10178800D0F0A4C0D1F0A5C0D2F0040E0001D76FEC
:1017980023D6030E0001D76F1FD6010E0001AC6FD0
:1017A8000A0E34DDAEC0AAF0AFC0ABF0120E0001D5
:1017B800AA5D030EAB59D8A003D0010E926F58D082
:1017C800FB0E0001AA5D020EAB59D8A009D0070E86
:1017D800AA5D030EAB59D8B003D0020E926F48D061
:1017E800E70E0001AA5D020EAB59D8A009D0F80E89
:1017F800AA5D020EAB59D8B003D0030E926F38D051
:10180800D30E0001AA5D020EAB59D8A009D0E40E90
:10181800AA5D020EAB59D8B003D0040E926F28D03F
:10182800C70E0001AA5D020EAB59D8A009D0D00E90
:10183800AA5D020EAB59D8B003D0050E926F18D02E
:10184800C50E0001AA5D020EAB59D8B011D0932B7A
:10185800060E936102D0060E926F060E0001936584
:1018680002D0070E926F0A0E0001936301D0936BAA
:10187800040E0001D76FB0D500019451D8B434D00C
:10188800010AD8B449D0030AD8B4F5D0010AD8B4AB
:101898004FD0070AD8B455D0010AD8B45BD0030A90
:1018A800D8B461D0010AD8B467D00F0AD8B46DD0C3
:1018B800010AD8B473D0030AD8B479D0010AD8B4CD
:1018C8007FD0070AD8B485D0010AD8B48BD0030AD0
:1018D800D8B491D0010AD8B497D01F0AD8B4B4D0DC
:1018E800010AD8B4BDD0C7D0A7C0B0F0A8C0B1F025
:1018F800A9C0B2F0FDEC01F0B0C0ACF0B1C0ADF0E1
:10190800020E0001B06F010EB16FACC0B2F0ADC0F5
:10191800B3F059EC06F0AFD0020E0001B06F070E1D
:10192800B16FA1C0B2F0A2C0B3F059EC06F0A3D0D9
:10193800020E0001B06F0D0EB16F735199EC07F0F4
:101948009AD0020E0001B06F110EB16F745199EC6C
:1019580007F091D0030E0001B06F010EB16F755101
:1019680099EC07F088D0030E0001B06F050EB16F37
:10197800765199EC07F07FD0030E0001B06F090E85
:10198800B16F775199EC07F076D0030E0001B06F74
:101998000D0EB16F785199EC07F06DD0030E000170
:1019A800B06F110EB16F795199EC07F064D0040E45
:1019B8000001B06F010EB16F7A5199EC07F05BD05E
:1019C800040E0001B06F050EB16F7B5199EC07F062
:1019D80052D0040E0001B06F090EB16F7C5199EC22
:1019E80007F049D0040E0001B06F0D0EB16F7D51A4
:1019F80099EC07F040D0040E0001B06F110EB16FE2
:101A08007E5199EC07F037D0A3C0B0F0A4C0B1F074
:101A1800A5C0B2F0FDEC01F0B0C0AEF0B1C0AFF0BF
:101A2800010E0001B06F010EB16FAEC0B2F0AFC0D1
:101A3800B3F059EC06F0010E0001B06F0C0EB16F57
:101A4800CE5199EC07F017D0010E0001B06F100EBF
:101A5800B16F9FC0B2F0A0C0B3F059EC06F00BD044
:101A6800010E0001B06F070EB16F9DC0B2F09EC0AD
:101A7800B3F059EC06F00001942B120E946301D0D8
:101A8800946B0001D76BA8D4F29E400E9B6E7F0E1C
:101A9800D06E700ED36E070E7E6E0F0E926E936A26
:101AA800946A956A8A6A826A836A090ECA6EC70E40
:101AB800CB6E8C0EBD6E040EB76E12000001696FFE
:101AC8006951DC0FF66E1A0EF76AF722F86A0800F9
:101AD800F5501200000810171F272F363D444B51B0
:101AE800575D62676C707377797B7D7E7F800C10A1
:101AF80008041B040403EEFFFFFFFFFFFFFFEEFFD8
:101B0800F1FFFFFFFFFFEEFFF1F1FFFFFFFFEEFF29
:101B1800F1F1F1FFFFFFEEFFF1F1F1F1FFFFEEFF51
:0E1B2800F1F1F1F1F1FF0000000000000000FB
:020000040030CA
:08000000FF080116FF8881FFD3
:00000001FF
