:020000040000FA
:04000000EAEF09F02A
:10000800D8CF60F0E0CF61F00001626FF3CF63F00A
:10001800F4CF64F0F6CF65F0F7CF66F0F8CF67F06D
:10002800F5CF68F09EA270D01D0ECA6E9E92010E8A
:10003800CA6F070E0001CA6104D0C037C137CA2B86
:10004800F8D7C1C0BEFF0001C0AFBD9AC0BFBD8A0E
:10005800C0ADBD98C0BDBD88BFA107D0180EC96589
:1000680002D0BF9102D00001C92B0001BFA1C9076E
:100078000001C953D8A419D09EA2FED79E920D0E96
:10008800CA6EBE6ABD9ABD989EA2FED79E92050E04
:10009800CA6EBE6ABD9ABD988C700001BF81010E00
:1000A800C96F040ECB6301D0CB6B0001C95170EC52
:1000B8000DF00001C76FC86BC751C203F3CFC0F082
:1000C800F4CFC1F0C851C203F350C127C751C303CD
:1000D800F350C127C0516A6FC1516B6F6C6B100E22
:1000E800696F00016A376B376C37D8B004D00A0ED5
:1000F8006C5DD8A004D00A0E00016C5FD8800001A6
:10010800C037C137692FEDD763C0F3FF64C0F4FF70
:1001180065C0F6FF66C0F7FF67C0F8FF68C0F5FF67
:100128000001625161C0E0FF60C0D8FF100000010B
:10013800A551B06FA819B16FA651D8A4A951D8B4C8
:100148004AD00001A6277E0ED8A004D0A65FD8A06A
:1001580005D044D00001A65FD8A03BD0A4C0AFF022
:100168000001B08FA88FA46BA56BA751AF03F4CF84
:10017800B2F0A851AF03F350B227F450A423000EF5
:10018800A523A751B003F350B227F450A423000EBF
:10019800A523A851B003F350A427F450A523A5BF65
:1001A80009D0B237A437A537A653D8B412D0000166
:1001B800A607B2350001CCAD18D0D8A016D0A43F00
:1001C80014D0A53F12D0D880A533A433A63F0DD0B4
:1001D80005D00001CC850001A66B03D00001CC83BB
:1001E800A6690001A46B800EA56F0001B1AFA59FA1
:1001F8000001A45112000001A551AB6FA819AC6F02
:10020800A951D8B45CD00001A653D8B45DD0000180
:10021800A951A65F7F0ED8B004D0A627D8B005D0C4
:1002280051D00001A627D8B052D0A4C0AAF000012E
:10023800AB8FA88F100EAD6FA46BA56B0BD0000110
:10024800A751AA5DD8A013D00001AA6FAB6B0ED03E
:10025800D8B007D00001A851AB5DD8B4F0D7D8A06A
:1002680006D00001A751AA5FA851AB5BD880000156
:10027800A437A537AA37AB37AD2FEAD7A5BF09D022
:10028800A653D8B41FD00001AC33A607AD2BAC37AA
:10029800DFD70001CCAD23D0D8B007D00001A751DB
:1002A800AA5FA851AB5BD8A01AD00001A43F17D011
:1002B800A53F15D0A533A433A63F11D008D000011F
:1002C800CC8707D00001CC850001A66B04D00001C3
:1002D800CC830001A6690001A46B800EA56F000104
:1002E800ACAFA59F0001A45112000001A951A65D61
:1002F800B16FD8B013D0B16DA6C0B0F0A9C0A6F048
:10030800B0C0A9F0A5C0B0F0A8C0A5F0B0C0A8F0D2
:10031800A4C0B0F0A7C0A4F0B0C0A7F0110E0001AF
:10032800B16501D086D00001A953D8B482D00001AC
:10033800AF6BA551B06FA819B26FA58FA88F080E23
:100348000001B15FD8A007D0A7C0AFF0A8C0A7F040
:100358000001A86BF4D70001B127D8B407D0D89012
:100368000001A833A733AF33B12FF9D70001B2AFDB
:1003780039D0A751A45FA851A55BD8B007D0D880C1
:10038800000EA457000EA557800EB01B0001AF6DDC
:10039800D8B403D0A407000EA55B030E0001B16F0B
:1003A8000001A553D8A40DD0A4C0A5F0AFC0A4F0F7
:1003B800AF6B080EA65FD8A02FD00001B12FF0D7E1
:1003C8002BD00001A5BF07D0D890AF37A437A537E9
:1003D800A62FF7D721D00001CCAD28D0AFAF26D0BB
:1003E800AF6B12D00001A751A427A851A523D8A00C
:1003F80006D00001A533A433AF33A64B10D00001BB
:10040800CCAD14D0AFAF12D00001A43F0FD0A53FA0
:100418000DD0D880A491EDD70001A66B03D00001C0
:10042800CC83A6690001A46B800EA56F0001B0AF54
:10043800A59F0001A4511200800E0001A81B55DFE2
:100448000001A45112008E0E0001AA6FAB6BAC6BB9
:10045800A6AF08D0D880000EA457000EA557000EEE
:10046800A657AC8F0001A653D8B409D0080EAA2706
:10047800A4C0ABF0A5C0A4F0A6C0A5F012D000019E
:10048800A553D8A40ED0080EAA5FA451D8B41DD085
:100498000001A56FA46B05D00001AB37A437A537C1
:1004A800AA070001A5AFF8D7CCAD0AD0ABAF08D0EA
:1004B800A43F06D0A53F04D0D880A533A433AA2BE7
:1004C800AAC0A6F00001ACAFA59F0001A45112007C
:1004D800A5C0AAF07E0E0001A65DAB6FD8A032D0F1
:1004E8000001A58FA66BAC6BAB511008AB6FD8B0F1
:1004F8000BD0080EAB27D8A021D0A5C0A6F0A4C069
:10050800A5F00001A46B0BD0080E0001AB5DD8A0CC
:1005180006D0AB6FA4C0ACF0A5C0A4F0A56B0001D9
:10052800AB53D8B408D0D8900001A633A533A43370
:10053800AC33AB2FF8D70001A6AF0BD00001CC83AA
:10054800FF0E01D0000E0001A46FA56FA66FA69F35
:1005580011D00001CCAD04D0ACAF02D0A44BA52B78
:100568000001AAAF07D0D880000EA457000EA557E7
:10057800000EA6570001A45112000001BA6FBB6B10
:10058800110EBC6F0BD00001BB37BD37BA51BB5D34
:10059800BDB1D880D8A002D00001BB6F0001B83728
:1005A800B937BC2FF0D7B85112000001BC6BBD6B36
:1005B800110EBE6F0ED00001BC37BD37BA51BC5DFD
:1005C800BB51BD59D8A005D00001BD6FBA51BC5F61
:1005D800D8800001B837B937BE2FEDD7B85112000F
:1005E8000001BA6FBB6B100EBC6F0001B837B9378A
:1005F800BB37BD37BA51BB5DBDB1D880D8A002D0DA
:100608000001BB6F0001BC2FF0D7BB5112000001E5
:10061800BC6BBD6B100EBE6F0001B837B937BC3765
:10062800BD37BA51BC5DBB51BD59D8A004D000013B
:10063800BD6FBA51BC5F0001BE2FEED7BC5112008E
:100648000001A5BFA1D00001A653D8B49FD0A6C071
:10065800AAF0CCC0ABF00001CC8D7F0EA66FA4C071
:10066800ACF0A5C0ADF0A6C0AEF0A5AD3DD0A70ECC
:10067800A76FB80EA86F770EA96F59DD790E000124
:10068800A76F610EA86F7A0EA96F2FDEACC0A7F016
:10069800ADC0A8F0AEC0A9F04ADD310E0001A76FC9
:1006A800F50EA86F7C0EA96F20DEACC0A7F0ADC018
:1006B800A8F0AEC0A9F03BDDC10E0001A76F540E33
:1006C800A86F7E0EA96F11DEACC0A7F0ADC0A8F070
:1006D800AEC0A9F02CDD220E0001A76F380EA86F5E
:1006E8007D0EA96F02DE3DD0360E0001A76F990E70
:1006F800A86F790EA96F1BDD370E0001A76F050ED5
:10070800A86F7C0EA96FF1DDACC0A7F0ADC0A8F052
:10071800AEC0A9F00CDDC90E0001A76FCD0EA86F01
:100728007D0EA96FE2DDACC0A7F0ADC0A8F0AEC0E9
:10073800A9F0FDDC020E0001A76F7D0EA86F7E0EEA
:10074800A96FD3DDACC0A7F0ADC0A8F0AEC0A9F0CA
:10075800EEDCBD0E0001A76F1A0EA86F7D0EA96F03
:10076800C4DD0001AAB107D0050EA76F350EA86F2A
:100778007F0EA96FDCDC7F0E0001AA27AA31A66FC5
:10078800ABBD04D0CC9D02D00001CC8B0001A4519C
:1007980012004E0EB96F0400B92FCFEF03F0D5EF5A
:1007A80003F0040012000F0EB96FB10EBA6F040007
:1007B800DEEF03F0BA2FDBEF03F0B92FD9EF03F028
:1007C800E6EF03F0E8EF03F004001200120E7F6E6C
:1007D800370E7F6EC90E7F6E04007F2EF0EF03F098
:1007E8007F2EEEEF03F07F2EECEF03F0FCEF03F02B
:1007F80004001200170E7F6E3B0E7F6EEB0E7F6EAD
:10080800040004007F2E04EF04F07F2E02EF04F0B2
:100818007F2E00EF04F01200360E7F6EBC0E7F6E46
:10082800C40E7F6E04007F2E16EF04F07F2E14EFA7
:1008380004F07F2E12EF04F022EF04F004001200FF
:1008480000019E6F819A00009EA981969EB98186BB
:1008580000009EAB81949EBB818400009EAD819276
:100868009EBD818200009EAF81909EBF8180000066
:1008780081888FDF819812000001B86FB8A981962E
:10088800B8B981860000B8AB8194B8BB81840000F8
:10089800B8AD8192B8BD81820000B8AF8190B8BF71
:1008A800818081DF819A75DF818873DF81987BDFA2
:1008B8007ADF0001B83BB8A98196B8B981860000F3
:1008C800B8AB8194B8BB81840000B8AD8192B8BD43
:1008D80081820000B8AF8190B8BF8180000063DFDB
:1008E800819A57DF818855DF81985DDF5CD70001E9
:1008F8009E6F9EA981969EB9818600009EAB8194C9
:100908009EBB818400009EAD81929EBD81820000C5
:100918009EAF81909EBF81800000818A3ADF8188E6
:1009280038DF8198010E00019F6F070E00019F615B
:1009380004D02FDF00019F2BF8D700019E3B9EA912
:1009480081969EB9818600009EAB81949EBB81846E
:1009580000009EAD81929EBD818200009EAF819075
:100968009EBF818000001FDF818A1DDF818811DF23
:100978008198010E00019F6F070E00019F6104D04E
:1009880008DF00019F2BF8D70C0E76D77F6E300E4C
:100998007F267FA881967FB8818600007FAA8194F0
:1009A8007FBA818400007FAC81927FBC8182000085
:1009B8007FAE81907FBE81800000818AEADE8188D7
:1009C800E8DE8198010E7F6E070E7F6003D0E1DEBE
:1009D8007F2AFAD77F3A7FA881967FB88186000060
:1009E8007FAA81947FBA818400007FAC81927FBC0A
:1009F800818200007FAE81907FBE8180D4DE818AB3
:100A0800D2DE8188C6DE8198010E7F6E070E7F6078
:100A180003D0BFDE7F2AFAD70C0E2ED70400010EB2
:100A280000019D6F150E00019D6104D0BCDE000120
:100A38009D2BF8D7300E04DF010E00019D6F060EC6
:100A480000019D6104D0AFDE00019D2BF8D7300E68
:100A5800F7DE010E00019D6F0B0E00019D6104D0B1
:100A680098DE00019D2BF8D7300EEADE010E00015A
:100A78009D6F0B0E00019D6104D08BDE00019D2B44
:100A8800F8D7200EDDDE280EF7DE0C0EF5DE020E9E
:100A9800F3D600019E6F9D51010AD8B40AD0030A0B
:100AA800D8B40CD0010AD8B40ED0070AD8B410D0E4
:100AB80016D07F0E00019E25DFDE11D0BF0E00018B
:100AC8009E25DADE0CD0930E00019E25D5DE07D0D8
:100AD800D30E00019E25D0DE02D00C0ECDD612001A
:100AE8007F6E7F50010AD8B40AD0030AD8B40AD05E
:100AF800010AD8B40AD0070AD8B40AD00BD0800E9D
:100B0800BBDE08D0C00EB8DE05D0940EB5DE02D02C
:100B1800D40EB2DE010E7F6E150E7F6004D0200E5B
:100B2800E6DE7F2AF9D70C0EA7D6010EA5D67F5090
:100B3800010AD8B40AD0030AD8B40BD0010AD8B431
:100B48000CD0070AD8B40DD012D07F0E7F2494DEC3
:100B58000ED0BF0E7F2490DE0AD0930E7F248CDE49
:100B680006D0D30E7F2488DE02D00C0E85DE7FB03F
:100B780011D0020E7F6E7F6A7F6AE80E7F5C030EDB
:100B88007F58D8A036D03E0EB2DE450EB0DE720ECB
:100B9800AEDEF9D0010E7F6E100E7F5C270E7F58F7
:100BA800D8A007D03E0EA3DE450EA1DE720E9FDE52
:100BB800EAD07FCF7FFF7FCF7FFF7FCFB8F07FCF97
:100BC800B9F0E80E0001BA6F030EBB6FEEDCB8C0D7
:100BD8007FFFB9C07FFF7FCFB8F07FCFB9F0E80EB5
:100BE8000001BA6F030EBB6F12DDBCC07FFFBDC032
:100BF8007FFF7FCFB8F07FCFB9F0640EBEDCB8C0FE
:100C08007FFFB9C07FFF7FCFB8F07FCFB9F0640E08
:100C1800E7DC7F6E7FCFB8F00001B96B0A0EADDC60
:100C2800B8C07FFF7FCFB8F00001B96B0A0ED8DCDF
:100C38007F6E7FCF7FFF070E7F60A5D004007F2CDB
:100C48000BD07F507F10D8A405D07FB003D0200EE2
:100C58007F6E02D07FCF7FFF020E7F620FD07F5062
:100C68007F10D8A409D07F507F10D8A405D07FB0BA
:100C780003D0200E7F6E02D07FCF7FFF030E7F62EE
:100C88000AD07FA007D07FB003D02E0E7F6E03D08E
:100C98007F2A01D07F2A040E7F6212D07F507F10F6
:100CA800D8A40CD07F507F10D8A408D07F50D8A4E7
:100CB80005D07FB003D0200E7F6E02D07FCF7FFF9C
:100CC800050E7F620AD07FB007D07FB003D02E0E0A
:100CD8007F6E03D07F2A01D07F2A060E7F6202D062
:100CE8007FCF7FFF7F502E0AD8B406D07F50200ACE
:100CF800D8B402D0300E7F267FA881967FB881862F
:100D080000007FAA81947FBA818400007FAC819221
:100D18007FBC818200007FAE81907FBE8180000011
:100D2800818A37DD818835DD8198010E7F6E070E57
:100D38007F6003D02EDD7F2AFAD77F3A7FA881967D
:100D48007FB8818600007FAA81947FBA81840000E1
:100D58007FAC81927FBC818200007FAE81907FBE94
:100D6800818021DD818A1FDD818813DD8198010E54
:100D78007F6E070E7F6003D00CDD7F2AFAD70C0E3A
:100D88007BDD7F2A58D712000001A451010AD8B48C
:100D98000AD0030AD8B40CD0010AD8B40ED0070A76
:100DA800D8B410D016D07F0E0001A52565DD11D06E
:100DB800BF0E0001A52560DD0CD0930E0001A5250E
:100DC8005BDD07D0D30E0001A52556DD02D00C0E41
:100DD80053DDA6C0A8F0A7C0A9F0A8C0B8F0A9C064
:100DE800B9F0100E0001BA6F270EBB6FD9EC02F0F4
:100DF800B8C0AEF0B9C0AFF0A8C0B8F0A9C0B9F09B
:100E0800100E0001BA6F270EBB6F01DCBCC0A8F042
:100E1800BDC0A9F0A8C0B8F0A9C0B9F0E80E00019B
:100E2800BA6F030EBB6FD9EC02F0B8C0AAF0B9C014
:100E3800ABF0A8C0B8F0A9C0B9F0E80E0001BA6FCD
:100E4800030EBB6F0BEC03F0BCC0A6F0BDC0A7F04F
:100E5800A6C0B8F0A7C0B9F0640EC1EC02F0B8C0E3
:100E6800ACF0B9C0ADF0A6C0B8F0A7C0B9F0640E38
:100E7800F4EC02F00001B26FB2C0B8F0B96B0A0E20
:100E8800C1EC02F0B8C0B0F0B2C0B8F00001B96B64
:100E98000A0EF4EC02F00001B16FB46B050E00010C
:100EA800B461B1D0B451D8B40DD0010AD8B415D0BA
:100EB800030AD8B421D0010AD8B431D0070AD8B46B
:100EC80044D045D00001AE51AF11D8A403D0200EB4
:100ED800B66F3DD0AEC0B6F03AD00001AA51AB1102
:100EE800D8A407D0AE51AF11D8A403D0200EB66F46
:100EF8002ED0AAC0B6F02BD00001AE51AF11D8A4A5
:100F08000BD0AA51AB11D8A407D0AC51AD11D8A4BD
:100F180003D0200EB66F1BD0ACC0B6F018D00001BD
:100F2800AA51AB11D8A40ED0AC51AD11D8A40AD097
:100F3800B053D8A407D0AE51AF11D8A403D0200E17
:100F4800B66F05D0B0C0B6F002D0B1C0B6F000019F
:100F5800B651200AD8B402D0300EB6270001B6A97F
:100F68008196B6B981860000B6AB8194B6BB818400
:100F78000000B6AD8192B6BD81820000B6AF819007
:100F8800B6BF81800000818A04DC818802DC8198F8
:100F9800010E0001B36F070E0001B36105D0CDEC5F
:100FA80003F00001B32BF7D70001B63BB6A9819631
:100FB800B6B981860000B6AB8194B6BB81840000C7
:100FC800B6AD8192B6BD81820000B6AF8190B6BF42
:100FD8008180D7EC03F0818AD7EC03F08188CDECCF
:100FE80003F08198010E0001B36F070E0001B36191
:100FF80005D0CDEC03F00001B32BF7D70C0E3CDC89
:101008000001B42B4BD712000001A66FA451010AAE
:10101800D8B40AD0030AD8B40CD0010AD8B40ED078
:10102800070AD8B410D016D07F0E0001A52524DCFD
:1010380011D0BF0E0001A5251FDC0CD0930E0001B6
:10104800A5251ADC07D0D30E0001A52515DC02D092
:101058000C0E12DCA6C0B8F00001B96B640EC1EC2E
:1010680002F0B8C0A8F0A6C0B8F00001B96B640ED1
:10107800F4EC02F00001AB6FABC0B8F0B96B0A0E2C
:10108800C1EC02F0B8C0A9F0ABC0B8F00001B96B70
:101098000A0EF4EC02F00001AA6FAD6B030E00011A
:1010A800AD6182D0AD51D8B407D0010AD8B40ED002
:1010B800030AD8B418D019D00001A853D8A403D073
:1010C800200EAF6F12D0A8C0AFF00FD00001A85308
:1010D800D8A406D0A953D8A403D0200EAF6F05D04A
:1010E800A9C0AFF002D0AAC0AFF00001AF51200AEA
:1010F800D8B402D0300EAF270001AFA98196AFB99E
:1011080081860000AFAB8194AFBB81840000AFAD96
:101118008192AFBD81820000AFAF8190AFBF818067
:101128000000818ACDEC03F08188CDEC03F0819832
:10113800010E0001AC6F070E0001AC6105D0CDECCB
:1011480003F00001AC2BF7D70001AF3BAFA98196A4
:10115800AFB981860000AFAB8194AFBB818400003A
:10116800AFAD8192AFBD81820000AFAF8190AFBFBC
:101178008180D7EC03F0818AD7EC03F08188CDEC2D
:1011880003F08198010E0001AC6F070E0001AC61FD
:1011980005D0CDEC03F00001AC2BF7D70C0E40ECDA
:1011A80004F00001AD2B7AD71200400E40EC04F099
:1011B800CDEC03F000019D6B080E00019D610DD080
:1011C8001A0E9D2570EC0DF07BEC04F0CDEC03F0CD
:1011D800CDEC03F000019D2BEFD700019D6B080EAD
:1011E80000019D610DD0220E9D2570EC0DF07BEC69
:1011F80004F0CDEC03F0CDEC03F000019D2BEFD70C
:1012080000019D6B080E00019D610DD02A0E9D25E1
:1012180070EC0DF07BEC04F0CDEC03F0CDEC03F0BA
:1012280000019D2BEFD700019D6B080E00019D6109
:101238000DD0320E9D2570EC0DF07BEC04F0CDEC5A
:1012480003F0CDEC03F000019D2BEFD700019D6B5F
:10125800080E00019D610DD03A0E9D2570EC0DF031
:101268007BEC04F0CDEC03F0CDEC03F000019D2BFA
:10127800EFD700019D6B080E00019D610DD0420E55
:101288009D2570EC0DF07BEC04F0CDEC03F0CDEC7B
:1012980003F000019D2BEFD700019D6B080E0001A4
:1012A8009D610DD04A0E9D2570EC0DF07BEC04F08D
:1012B800CDEC03F0CDEC03F000019D2BEFD700013E
:1012C8009D6B080E00019D610DD0520E9D2570EC9E
:1012D8000DF07BEC04F0CDEC03F0CDEC03F0000155
:1012E8009D2BEFD7020E40EF04F00001A36FA2512F
:1012F800D8B428D0010AD8B428D0030AD8B428D042
:10130800010AD8B428D0070AD8B428D0010AD8B41A
:1013180028D0030AD8B428D0010AD8B428D00F0A94
:10132800D8B428D0010AD8B428D0030AD8B428D011
:10133800010AD8B428D0070AD8B428D0010AD8B4EA
:1013480028D02AD0010EC26E29D0050EC26E26D032
:10135800090EC26E23D00D0EC26E20D0110EC26EC1
:101368001DD0150EC26E1AD0190EC26E17D01D0EE2
:10137800C26E14D0210EC26E11D0250EC26E0ED0D0
:10138800290EC26E0BD02D0EC26E08D0310EC26E61
:1013980005D0350EC26E02D0010EC26E080E0001D5
:1013A800A36309D0C09EC282C2B2FED7C4CFA4F044
:1013B8000001A56B08D0C08EC282C2B2FED7C3CFCF
:1013C800A4F0C4CFA5F00001A45112006BDB00010A
:1013D8006E6B400E9B6E7F0ED06E700ED36E12EC4D
:1013E80005F099EC05F0E1DE99EC05F0010E00013D
:1013F8009D6F010E4DEC05F0410ED56E040EF16E99
:10140800F2948C900001C46B400EC56F800EC66FBD
:10141800400EF26EC96BC06BC16BBF81010E6D6F60
:10142800070E00016D6104D0C037C1376D2BF8D7A6
:10143800C1C0BEFF0001C0AFBD9AC0BFBD8AC0AD6C
:10144800BD98C0BDBD889E929D82CA84C92BC951D2
:1014580043DB0001C76FC86BC7C0A4F0C8C0A5F0C4
:10146800A66B27EC02F0C4C0A7F0C5C0A8F0C6C0A0
:10147800A9F09BEC00F06CEC02F0A4C0C0F0A5C091
:10148800C1F00001CB6B936B946B9C91020E9D6F26
:10149800010E4DEC05F0040E00019D6F010E4DECA0
:1014A80005F0040E00019D6F0A0E4DEC05F0F28E5A
:1014B800C16A8E0EC06E0001CB51D8B40DD0010A9E
:1014C800D8B4F9D0030AD8B480D1010AD8B481D1EC
:1014D800070AD8B4EDD1EFD700016F6B9CB165D086
:1014E8008CA063D0050E0001C96307D06F53D8B430
:1014F80025D06F51070AD8B421D00A0E0001C9635C
:1015080006D06F4D1BD06F51060AD8B417D00F0EF6
:101518000001C96308D06F51020AD8B40FD06F51C7
:10152800050AD8B40BD0140E0001C9633BD06F5123
:10153800030AD8B403D0040E6F6334D08286000146
:10154800A26B080ED2DEA4C080F0020E0001A26FCA
:10155800080ECBDEA4C091F08296EA6A700E0001F4
:101568006F25E96E80517F08EF6EEA6A810E6F255C
:10157800E96E91C0EFFF6F2B140EC96313D0040EF0
:101588006F6310D0CDEC03F0CDEC03F0CDEC03F09D
:10159800CDEC03F0CDEC03F0CDEC03F0CDEC03F093
:1015A800CDEC03F000019C819BD700019CA17BD06E
:1015B800C4C0A4F0C5C0A5F0C6C0A6F0A76B200E95
:1015C800A86F820EA96F9BEC00F06CEC02F0A4C02F
:1015D800C2F0A5C0C3F08CB066D0050E0001C96387
:1015E80008D06F51080AD8B427D06F510F0AD8B461
:1015F80023D00A0E0001C96308D06F51090AD8B474
:101608001BD06F510E0AD8B417D00F0E0001C96352
:1016180008D06F510A0AD8B40FD06F510D0AD8B448
:101628000BD0140E0001C9633BD06F510B0AD8B41C
:1016380003D00C0E6F6334D082860001A26B080EB3
:1016480054DEA4C080F0020E0001A26F080E4DDE29
:10165800A4C091F0826AEA6A700E00016F25E96EF3
:101668007F0E805DEF6EEA6A810E6F25E96E91C08C
:10167800EFFF6F2B140EC96313D00C0E6F6310D0DD
:10168800CDEC03F0CDEC03F0CDEC03F0CDEC03F0A2
:10169800CDEC03F0CDEC03F0CDEC03F0CDEC03F092
:1016A80000019C9198D7010E0001CB6F100E6F615D
:1016B80002D7CB6B00D70001986B996B6D6B100E3E
:1016C80000016D6112D0EA6A700E6D25E96EEFCFE8
:1016D80080F080518003F3CFA2F0F4CFA3F0A251A1
:1016E8009827A35199236D2BEAD798C09AF099C0EF
:1016F8009BF098C0B8F099C0B9F000016D51C1ECE9
:1017080002F0B8C098F0B9C099F098C0A4F099C098
:10171800A5F00001A66B27EC02F024EC03F0A4C0AE
:1017280095F0A5C096F0A6C097F00001A46B200E16
:10173800A56F820EA66F95C0A7F096C0A8F097C0B7
:10174800A9F09BEC00F00001A76B400EA86F810E7A
:10175800A96FFFEC00F0A4C09DF0A5C09EF0A6C044
:101768009FF095C0A4F096C0A5F097C0A6F0000120
:10177800A76B780EA86F830EA96F20EC02F0A4C0A7
:1017880095F0A5C096F0A6C097F095C0A4F096C0B5
:10179800A5F097C0A6F09DC0A7F09EC0A8F09FC076
:1017A800A9F0FFEC00F00001A76B400EA86F810EB6
:1017B800A96F9BEC00F0A4C0C4F0A5C0C5F0A6C0FA
:1017C800C6F0040E0001CB6F76D6030E0001CB6F76
:1017D80072D6010E0001A26F0A0E87DDA4C0A0F028
:1017E800A5C0A1F0120E0001A05D030EA159D8A05A
:1017F80003D0010E926F58D0FB0E0001A05D020EBF
:10180800A159D8A009D0070EA05D030EA159D8B0E0
:1018180003D0020E926F48D0E70E0001A05D020EC1
:10182800A159D8A009D0F80EA05D020EA159D8B0D0
:1018380003D0030E926F38D0D30E0001A05D020EC4
:10184800A159D8A009D0E40EA05D020EA159D8B0C4
:1018580003D0040E926F28D0C70E0001A05D020EBF
:10186800A159D8A009D0D00EA05D020EA159D8B0B8
:1018780003D0050E926F18D0C50E0001A05D020EB0
:10188800A159D8B011D0932B060E936102D0060E41
:10189800926F060E0001936502D0070E926F0A0E32
:1018A8000001936301D0936B040E0001CB6F03D644
:1018B80000019451D8B434D0010AD8B43AD0030AFC
:1018C800D8B440D0010AD8B446D0070AD8B44CD00E
:1018D800010AD8B452D0030AD8B458D0010AD8B4EF
:1018E8005ED00F0AD8B464D0010AD8B46AD0030A0B
:1018F800D8B470D0010AD8B476D0070AD8B47CD04E
:10190800010AD8B482D0030AD8B488D0010AD8B45E
:101918008ED01F0AD8B494D0010AD8B4AFD0B9D0A9
:10192800020E0001A46F010EA56F705108EC08F0BB
:10193800B0D0020E0001A46F050EA56F715108EC1E
:1019480008F0A7D0020E0001A46F090EA56F72510E
:1019580008EC08F09ED0020E0001A46F0D0EA56FD2
:10196800735108EC08F095D0020E0001A46F110E17
:10197800A56F745108EC08F08CD0030E0001A46F19
:10198800010EA56F755108EC08F083D0030E000115
:10199800A46F050EA56F765108EC08F07AD0030EF7
:1019A8000001A46F090EA56F775108EC08F071D0FB
:1019B800030E0001A46F0D0EA56F785108EC08F016
:1019C80068D0030E0001A46F110EA56F795108ECC1
:1019D80008F05FD0040E0001A46F010EA56F7A51C4
:1019E80008EC08F056D0040E0001A46F050EA56F90
:1019F8007B5108EC08F04DD0040E0001A46F090ECD
:101A0800A56F7C5108EC08F044D0040E0001A46FC7
:101A18000D0EA56F7D5108EC08F03BD0040E0001B7
:101A2800A46F110EA56F7E5108EC08F032D0010E9C
:101A38000001A46F010EA56F7F5108EC08F029D0B2
:101A480095C0A4F096C0A5F097C0A6F06CEC02F083
:101A58000A0E0001A403F3CFA2F0F4CFA3F00A0EFC
:101A6800A503F350A327010EA46F0F0EA56FA2C004
:101A7800A6F0A3C0A7F0C8EC06F00BD0010E000139
:101A8800A46F050EA56F9AC0A6F09BC0A7F0C8EC7E
:101A980006F00001942B120E946301D0946B0001A0
:101AA800CB6B09D5F29E400E9B6E7F0ED06E700EEA
:101AB800D36E070E7E6E0F0E926E936A946A956AC5
:101AC8008A6A826A836A090ECA6EC70ECB6E8C0E4A
:101AD800BD6E040EB76E12000001696F6951F80FF0
:101AE800F66E1A0EF76AF722F86A0800F550120027
:101AF800000810171F272F363D444B51575D62676A
:101B08006C707377797B7D7E7F800C1008041B04D2
:101B18000403EEFFFFFFFFFFFFFFEEFFF1FFFFFFF4
:101B2800FFFFEEFFF1F1FFFFFFFFEEFFF1F1F1FF25
:101B3800FFFFEEFFF1F1F1F1FFFFEEFFF1F1F1F13F
:0A1B4800F1FF0000000000000000A3
:020000040030CA
:08000000FF080116FF8881FFD3
:00000001FF
