:020000040000FA
:04000000BDEF08F058
:10000800D8CF60F0E0CF61F00001626FF3CF63F00A
:10001800F4CF64F0F6CF65F0F7CF66F0F8CF67F06D
:10002800F5CF68F08B709EA270D01D0ECA6E9E929E
:10003800010EC36F070E0001C36104D0B937BA3788
:10004800C32BF8D7BAC0BEFF0001B9AFBD9AB9BF7C
:10005800BD8AB9ADBD98B9BDBD88B8A107D0180E85
:10006800C26502D0B89102D00001C22B0001B8A12C
:10007800C2070001C253D8A419D09EA2FED79E92EF
:100088000D0ECA6EBE6ABD9ABD989EA2FED79E92FC
:10009800050ECA6EBE6ABD9ABD988C700001B88103
:1000A800010EC26F050EC46301D0C46B0001C251BA
:1000B80062EC0CF00001C06FC16BC051BB03F3CF01
:1000C800B9F0F4CFBAF0C151BB03F350BA27C0510D
:1000D800BC03F350BA27B9516A6FBA516B6F6C6B96
:1000E800100E696F00016A376B376C37D8B004D0CF
:1000F8000A0E6C5DD8A004D00A0E00016C5FD8808F
:100108000001B937BA37692FEDD763C0F3FF64C070
:10011800F4FF65C0F6FF66C0F7FF67C0F8FF68C068
:10012800F5FF0001625161C0E0FF60C0D8FF100018
:100138004E0EB46F0400B42F9EEF00F0A4EF00F051
:10014800040012000F0EB46FB10EB56F0400ADEFCE
:1001580000F0B52FAAEF00F0B42FA8EF00F0B5EF2C
:1001680000F0B7EF00F004001200120E7F6E370E99
:100178007F6EC90E7F6E04007F2EBFEF00F07F2ECA
:10018800BDEF00F07F2EBBEF00F0CBEF00F00400D6
:100198001200170E7F6E3B0E7F6EEB0E7F6E040013
:1001A80004007F2ED3EF00F07F2ED1EF00F07F2EDA
:1001B800CFEF00F01200360E7F6EBC0E7F6EC40EBD
:1001C8007F6E04007F2EE5EF00F07F2EE3EF00F056
:1001D8007F2EE1EF00F0F1EF00F0040012000001C3
:1001E800996F819A000099A9819699B98186000032
:1001F80099AB819499BB8184000099AD819299BD96
:100208008182000099AF819099BF81800000818828
:100218008FDF819812000001B36FB3A98196B3B93B
:1002280081860000B3AB8194B3BB81840000B3AD79
:100238008192B3BD81820000B3AF8190B3BF81804A
:1002480081DF819A75DF818873DF81987BDF7ADFB0
:100258000001B33BB3A98196B3B981860000B3AB63
:100268008194B3BB81840000B3AD8192B3BD818218
:100278000000B3AF8190B3BF8180000063DF819A33
:1002880057DF818855DF81985DDF5CD70001996F62
:1002980099A9819699B98186000099AB819499BBF7
:1002A8008184000099AD819299BD8182000099AF47
:1002B800819099BF81800000818A3ADF818838DF88
:1002C8008198010E00019A6F070E00019A6104D00F
:1002D8002FDF00019A2BF8D70001993B99A9819645
:1002E80099B98186000099AB819499BB81840000FB
:1002F80099AD819299BD8182000099AF819099BF93
:10030800818000001FDF818A1DDF818811DF8198CD
:10031800010E00019A6F070E00019A6104D008DFF0
:1003280000019A2BF8D70C0E76D77F6E300E7F26F9
:100338007FA881967FB8818600007FAA81947FBAC2
:10034800818400007FAC81927FBC818200007FAEF7
:1003580081907FBE81800000818AEADE8188E8DEA4
:100368008198010E7F6E070E7F6003D0E1DE7F2A41
:10037800FAD77F3A7FA881967FB8818600007FAA46
:1003880081947FBA818400007FAC81927FBC818296
:1003980000007FAE81907FBE8180D4DE818AD2DE6C
:1003A8008188C6DE8198010E7F6E070E7F6003D0BC
:1003B800BFDE7F2AFAD70C0E2ED70400010E0001EB
:1003C800986F150E0001986104D0BCDE0001982BCF
:1003D800F8D7300E04DF010E0001986F060E0001F9
:1003E800986104D0AFDE0001982BF8D7300EF7DE05
:1003F800010E0001986F0B0E0001986104D098DE81
:100408000001982BF8D7300EEADE010E0001986F34
:100418000B0E0001986104D08BDE0001982BF8D7F1
:10042800200EDDDE280EF7DE0C0EF5DE020EF3D60A
:100438000001996F9851010AD8B40AD0030AD8B4B8
:100448000CD0010AD8B40ED0070AD8B410D016D0F0
:100458007F0E00019925DFDE11D0BF0E000199251E
:10046800DADE0CD0930E00019925D5DE07D0D30E25
:1004780000019925D0DE02D00C0ECDD612007F6E79
:100488007F50010AD8B40AD0030AD8B40AD0010AA6
:10049800D8B40AD0070AD8B40AD00BD0800EBBDE75
:1004A80008D0C00EB8DE05D0940EB5DE02D0D40E4A
:1004B800B2DE010E7F6E150E7F6004D0200EE6DEE0
:1004C8007F2AF9D70C0EA7D6010EA5D67F50010AB0
:1004D800D8B40AD0030AD8B40BD0010AD8B40CD0C7
:1004E800070AD8B40DD012D07F0E7F2494DE0ED028
:1004F800BF0E7F2490DE0AD0930E7F248CDE06D0B8
:10050800D30E7F2488DE02D00C0E85DE7FB011D09A
:10051800020E7F6E7F6A7F6AE80E7F5C030E7F584B
:10052800D8A04DD03E0EB2DE450EB0DE720EAEDE65
:100538003BD1010E7F6E100E7F5C270E7F58D8A02E
:1005480007D03E0EA3DE450EA1DE720E9FDE2CD133
:100558007FCF7FFF7FCF7FFF7F507F6E7F507F6E83
:100568007F6A7F6A100E7F6E7F367F367F367F36D2
:10057800E80E7F5C030E7F58D8A005D0E80E7F5E9A
:10058800030E7F5AD8807F367F367F2EEDD77F5077
:100598007F6E7F507F6E7F6A7F6A100E7F6E7F3618
:1005A8007F367F367F36E80E7F5C030E7F58D8A0F3
:1005B80004D0E80E7F5E030E7F5A7F2EF0D77F505F
:1005C8007F6E7F507F6E7F6A100E7F6E7F367F361C
:1005D8007F36D8B004D0640E7F5CD8A003D0640EF8
:1005E8007F5ED8807F367F367F2EF0D77F507F6E34
:1005F8007F507F6E7F6A100E7F6E7F367F367F3624
:10060800D8B004D0640E7F5CD8A002D0640E7F5EA0
:100618007F2EF3D77F507F6E7F6A080E7F6E7F36FE
:100628007F360A0E7F5CD8A003D00A0E7F5ED88082
:100638007F367F2EF4D77F507F6E7F6A080E7F6EDD
:100648007F367F360A0E7F5CD8A002D00A0E7F5E06
:100658007F2EF6D77FCF7FFF070E7F60A5D00400DF
:100668007F2C0BD07F507F10D8A405D07FB003D04B
:10067800200E7F6E02D07FCF7FFF020E7F620FD0E9
:100688007F507F10D8A409D07F507F10D8A405D000
:100698007FB003D0200E7F6E02D07FCF7FFF030E86
:1006A8007F620AD07FA007D07FB003D02E0E7F6E66
:1006B80003D07F2A01D07F2A040E7F6212D07F5098
:1006C8007F10D8A40CD07F507F10D8A408D07F50BA
:1006D800D8A405D07FB003D0200E7F6E02D07FCF84
:1006E8007FFF050E7F620AD07FB007D07FB003D0AE
:1006F8002E0E7F6E03D07F2A01D07F2A060E7F62DE
:1007080002D07FCF7FFF7F502E0AD8B406D07F500B
:10071800200AD8B402D0300E7F267FA881967FB8F1
:10072800818600007FAA81947FBA818400007FAC13
:1007380081927FBC818200007FAE81907FBE8180E4
:100748000000818AF5DC8188F3DC8198010E7F6ED8
:10075800070E7F6003D0ECDC7F2AFAD77F3A7FA8A8
:1007680081967FB8818600007FAA81947FBA8184B0
:1007780000007FAC81927FBC818200007FAE8190B7
:100788007FBE8180DFDC818ADDDC8188D1DC8198D5
:10079800010E7F6E070E7F6003D0CADC7F2AFAD76E
:1007A8000C0E39DD7F2A58D7120000019F51010A2B
:1007B800D8B40AD0030AD8B40CD0010AD8B40ED0E1
:1007C800070AD8B410D016D07F0E0001A02523DD6B
:1007D80011D0BF0E0001A0251EDD0CD0930E000124
:1007E800A02519DD07D0D30E0001A02514DD02D005
:1007F8000C0E11DDA1C0A3F0A2C0A4F00001A3510A
:10080800B46FA451B56FB66BB76B100EB36F000120
:10081800B437B537B637B737100EB65D270EB759A8
:10082800D8A006D0100E0001B65F270EB75BD8809F
:100838000001A937AA37B32FEAD7A351B46FA4513F
:10084800B56FA36BA46B100EB36F0001B437B53747
:10085800A337A437100EA35D270EA459D8A005D03E
:10086800100E0001A35F270EA45B0001B32FEDD784
:10087800A351B46FA451B56FB66BB76B100EB36FBD
:100888000001B437B537B637B737E80EB65D030E93
:10089800B759D8A006D0E80E0001B65F030EB75BC3
:1008A800D8800001A537A637B32FEAD7A351B46F74
:1008B800A451B56FA16BA26B100EB36F0001B437D2
:1008C800B537A137A237E80EA15D030EA259D8A00B
:1008D80005D0E80E0001A15F030EA25B0001B32F53
:1008E800EDD7A151B46FA251B56FB66B100EB36FAF
:1008F8000001B437B537B637D8B004D0640EB65D4A
:10090800D8A004D0640E0001B65FD8800001A737D4
:10091800A837B32FEDD7A151B46FA251B56FAD6B06
:10092800100EB36F0001B437B537AD37D8B004D067
:10093800640EAD5DD8A003D0640E0001AD5F000168
:10094800B32FF0D7AD51B46FB56B080EB36F00017C
:10095800B437B5370A0EB55DD8A004D00A0E000129
:10096800B55FD8800001AB37B32FF1D7AD51B46F65
:10097800AC6B080EB36F0001B437AC370A0EAC5D30
:10098800D8A003D00A0E0001AC5F0001B32FF3D743
:10099800AF6B050E0001AF61B4D0AF51D8B40DD024
:1009A800010AD8B415D0030AD8B421D0010AD8B4A2
:1009B80031D0070AD8B444D045D00001A951AA11B2
:1009C800D8A403D0200EB16F3DD0A9C0B1F03AD061
:1009D8000001A551A611D8A407D0A951AA11D8A4DD
:1009E80003D0200EB16F2ED0A5C0B1F02BD00001DE
:1009F800A951AA11D8A40BD0A551A611D8A407D0E3
:100A0800A751A811D8A403D0200EB16F1BD0A7C03E
:100A1800B1F018D00001A551A611D8A40ED0A75145
:100A2800A811D8A40AD0AB53D8A407D0A951AA11A9
:100A3800D8A403D0200EB16F05D0ABC0B1F002D05E
:100A4800ACC0B1F00001B151200AD8B402D0300EC8
:100A5800B1270001B1A98196B1B981860000B1AB77
:100A68008194B1BB81840000B1AD8192B1BD818216
:100A78000000B1AF8190B1BF81800000818A9CECF9
:100A880000F081889CEC00F08198010E0001AE6FA7
:100A9800070E0001AE6105D09CEC00F00001AE2B02
:100AA800F7D70001B13BB1A98196B1B981860000A1
:100AB800B1AB8194B1BB81840000B1AD8192B1BD6D
:100AC80081820000B1AF8190B1BF8180A6EC00F0B7
:100AD800818AA6EC00F081889CEC00F08198010ED8
:100AE8000001AE6F070E0001AE6105D09CEC00F06E
:100AF8000001AE2BF7D70C0E0FEC01F00001AF2B65
:100B080048D71200400E0FEC01F09CEC00F00001F9
:100B1800986B080E000198610DD01A0E982562ECAA
:100B28000CF04AEC01F09CEC00F09CEC00F00001A9
:100B3800982BEFD70001986B080E000198610DD033
:100B4800220E982562EC0CF04AEC01F09CEC00F0C7
:100B58009CEC00F00001982BEFD70001986B080E71
:100B6800000198610DD02A0E982562EC0CF04AEC31
:100B780001F09CEC00F09CEC00F00001982BEFD702
:100B88000001986B080E000198610DD0320E98256F
:100B980062EC0CF04AEC01F09CEC00F09CEC00F0EC
:100BA8000001982BEFD70001986B080E000198619F
:100BB8000DD03A0E982562EC0CF04AEC01F09CEC52
:100BC80000F09CEC00F00001982BEFD70001986B27
:100BD800080E000198610DD0420E982562EC0CF0C9
:100BE8004AEC01F09CEC00F09CEC00F00001982B22
:100BF800EFD70001986B080E000198610DD04A0EDE
:100C0800982562EC0CF04AEC01F09CEC00F09CECAE
:100C180000F00001982BEFD70001986B080E000137
:100C280098610DD0520E982562EC0CF04AEC01F058
:100C38009CEC00F09CEC00F00001982BEFD7020E22
:100C48000FEF01F000019E6F9D51D8B428D0010A22
:100C5800D8B428D0030AD8B428D0010AD8B428D0E8
:100C6800070AD8B428D0010AD8B428D0030AD8B4BF
:100C780028D0010AD8B428D00F0AD8B428D0010A3D
:100C8800D8B428D0030AD8B428D0010AD8B428D0B8
:100C9800070AD8B428D0010AD8B428D02AD0010E1F
:100CA800C26E29D0050EC26E26D0090EC26E23D0A0
:100CB8000D0EC26E20D0110EC26E1DD0150EC26E62
:100CC8001AD0190EC26E17D01D0EC26E14D0210E86
:100CD800C26E11D0250EC26E0ED0290EC26E0BD078
:100CE8002D0EC26E08D0310EC26E05D0350EC26E02
:100CF80002D0010EC26E080E00019E6309D0C09E8C
:100D0800C282C2B2FED7C4CF9FF00001A06B08D048
:100D1800C08EC282C2B2FED7C3CF9FF0C4CFA0F0AC
:100D280000019F5112000001A051A66FA319A76FDF
:100D3800A151D8A4A451D8B44AD00001A1277E0E4D
:100D4800D8A004D0A15FD8A005D044D00001A15FED
:100D5800D8A03BD09FC0A5F00001A68FA38F9F6BA2
:100D6800A06BA251A503F4CFA8F0A351A503F3509B
:100D7800A827F4509F23000EA023A251A603F350E6
:100D8800A827F4509F23000EA023A351A603F350D5
:100D98009F27F450A023A0BF09D0A8379F37A037BA
:100DA800A153D8B412D00001A107A8350001C5ADE0
:100DB80018D0D8A016D09F3F14D0A03F12D0D8800A
:100DC800A0339F33A13F0DD005D00001C585000198
:100DD800A16B03D00001C583A16900019F6B800E40
:100DE800A06F0001A7AFA09F00019F511200000152
:100DF800A051A66FA319A76FA451D8B45CD0000165
:100E0800A153D8B45DD00001A451A15F7F0ED8B022
:100E180004D0A127D8B005D051D00001A127D8B05F
:100E280052D09FC0A5F00001A68FA38F100EA86F07
:100E38009F6BA06B0BD00001A251A55DD8A013D069
:100E48000001A56FA66B0ED0D8B007D00001A35142
:100E5800A65DD8B4F0D7D8A006D00001A251A55FEE
:100E6800A351A65BD88000019F37A037A537A637C6
:100E7800A82FEAD7A0BF09D0A153D8B41FD000012A
:100E8800A733A107A82BA737DFD70001C5AD23D00B
:100E9800D8B007D00001A251A55FA351A65BD8A086
:100EA8001AD000019F3F17D0A03F15D0A0339F3321
:100EB800A13F11D008D00001C58707D00001C58522
:100EC8000001A16B04D00001C5830001A1690001E4
:100ED8009F6B800EA06F0001A7AFA09F00019F51DC
:100EE80012000001A451A15DA76FD8B013D0A76D5F
:100EF800A1C0A6F0A4C0A1F0A6C0A4F0A0C0A6F00E
:100F0800A3C0A0F0A6C0A3F09FC0A6F0A2C09FF007
:100F1800A6C0A2F0110E0001A76501D086D000017D
:100F2800A453D8B482D00001A56BA051A66FA31911
:100F3800A86FA08FA38F080E0001A75FD8A007D0C5
:100F4800A2C0A5F0A3C0A2F00001A36BF4D70001D2
:100F5800A727D8B407D0D8900001A333A233A5336C
:100F6800A72FF9D70001A8AF39D0A2519F5FA3518D
:100F7800A05BD8B007D0D880000E9F57000EA057AE
:100F8800800EA61B0001A56DD8B403D09F07000EE4
:100F9800A05B030E0001A76F0001A053D8A40DD0D9
:100FA8009FC0A0F0A5C09FF0A56B080EA15FD8A0B8
:100FB8002FD00001A72FF0D72BD00001A0BF07D05A
:100FC800D890A5379F37A037A12FF7D721D0000198
:100FD800C5AD28D0A5AF26D0A56B12D00001A2516F
:100FE8009F27A351A023D8A006D00001A0339F3388
:100FF800A533A14B10D00001C5AD14D0A5AF12D0B8
:1010080000019F3F0FD0A03F0DD0D8809F91EDD712
:101018000001A16B03D00001C583A16900019F6B8A
:10102800800EA06F0001A6AFA09F00019F51120083
:10103800800E0001A31B55DF00019F5112008E0E88
:101048000001A56FA66BA76BA1AF08D0D880000ED2
:101058009F57000EA057000EA157A78F0001A1535C
:10106800D8B409D0080EA5279FC0A6F0A0C09FF04D
:10107800A1C0A0F012D00001A053D8A40ED0080E31
:10108800A55F9F51D8B41DD00001A06F9F6B05D0FC
:101098000001A6379F37A037A5070001A0AFF8D7F2
:1010A800C5AD0AD0A6AF08D09F3F06D0A03F04D058
:1010B800D880A0339F33A52BA5C0A1F00001A7AF0E
:1010C800A09F00019F511200A0C0A5F07E0E000154
:1010D800A15DA66FD8A032D00001A08FA16BA76B2D
:1010E800A6511008A66FD8B00BD0080EA627D8A016
:1010F80021D0A0C0A1F09FC0A0F000019F6B0BD031
:10110800080E0001A65DD8A006D0A66F9FC0A7F064
:10111800A0C09FF0A06B0001A653D8B408D0D89007
:101128000001A133A0339F33A733A62FF8D70001BE
:10113800A1AF0BD00001C583FF0E01D0000E000146
:101148009F6FA06FA16FA19F11D00001C5AD04D002
:10115800A7AF02D09F4BA02B0001A5AF07D0D88026
:10116800000E9F57000EA057000EA15700019F5177
:101178001200F29E8BDB00016E6B400E9B6E7F0EA1
:10118800D06E700ED36EE1EC01F068EC02F0BADCC0
:1011980068EC02F0010E0001986F010E1CEC02F0E1
:1011A80000016D6B130E00016D6108D05A0E6D259C
:1011B80085DB4AEC01F000016D2BF4D7000E4AECF8
:1011C80001F0410ED56E040EF16EF2948C90000180
:1011D800BD6B400EBE6F800EBF6F400EF26EC26BCD
:1011E800B96BBA6BB881010EC36F070E0001C361FA
:1011F80004D0B937BA37C32BF8D7BAC0BEFF00013D
:10120800B9AFBD9AB9BFBD8AB9ADBD98B9BDBD88E2
:101218009E929D82CA84C22BC25150DB0001C06FCE
:10122800C16BC0C09FF0C1C0A0F0A16B08DFBDC0FA
:10123800A2F0BEC0A3F0BFC0A4F075DD45DF9FC01B
:10124800B9F0A0C0BAF00001C46B956B0A0E966F96
:101258009797020E986F010E1CEC02F000016D6B5F
:10126800030E00016D6108D06D0E6D2527DB4AEC79
:1012780001F000016D2BF4D7040E0001986F010EE8
:101288001CEC02F000016D6B050E00016D6108D0C9
:10129800700E6D2513DB4AEC01F000016D2BF4D7BD
:1012A800040E0001986F0C0E1CEC02F000016D6B2F
:1012B800040E00016D6108D0750E6D25FFDA4AEC49
:1012C80001F000016D2BF4D7F28EC16A8E0EC06E4C
:1012D8000001C451D8B410D0010AD8B465D0030AAB
:1012E800D8B442D1010AD8B49AD1070AD8B4ECD1FB
:1012F800010AD8B459D2ECD700016F6B8CA04CD03E
:10130800060E0001C26307D06F53D8B419D06F51CD
:10131800050AD8B415D00C0E0001C26306D06F4D73
:101328000FD06F51040AD8B40BD0140E0001C26359
:10133800E5D76F51020AD8B403D0030E6F63DED726
:1013480000019D6B0A0E7EDC9FC07CF0A0C07DF082
:10135800EA6AD89000016F35700FE96E7CC0EEFF25
:101368007DC0EEFF6F2B140EC263C8D7030E6F63E8
:10137800C5D79CEC00F09CEC00F09CEC00F09CECD9
:1013880000F09CEC00F09CEC00F09CEC00F09CEC75
:1013980000F09CEC00F0B2D7010E0001C46F050EFE
:1013A8006F6196D7C46B94D70001906B916B6D6B8E
:1013B800060E00016D612FD0EA6AD8906D35700F66
:1013C800E96EEECF7CF0EECF7DF0D8906D35790FD9
:1013D80075DA00018C6F0B00F5508D6F8C517C5DB8
:1013E8008D517D59D8A008D08C517C5D8E6F8D5160
:1013F8007D598F6F978908D000017C518C5D8E6F65
:101408007D518D598F6F979900018E5190278F517B
:1014180091236D2BCDD7000190519E6F91519F6FF5
:10142800A06B100E9D6F00019E379F37A037D8B074
:1014380004D0060EA05DD8A004D0060E0001A05F5F
:10144800D8800001903791379D2FEDD7BD6B400EA6
:10145800BE6F800EBF6F90C09FF091C0A0F0A16BCF
:10146800EEDD0001A26B400EA36F800EA46F5BDC63
:101478009FC098F0A0C099F0A1C09AF098C09FF0C2
:1014880099C0A0F09AC0A1F00001A26B700EA36FE2
:10149800860EA46FACDC9FC098F0A0C099F0A1C0E4
:1014A8009AF0000197A925D099BF08D0010E985D40
:1014B800400E9959800E9A59D8B014D0BDC09FF0EB
:1014C800BEC0A0F0BFC0A1F098C0A2F099C0A3F020
:1014D8009AC0A4F006DD9FC0BDF0A0C0BEF0A1C0B8
:1014E800BFF02BD00001BD6B400EBE6F810EBF6FE9
:1014F80024D0000199BF08D0010E985D400E99597B
:10150800800E9A59D8B014D0BDC09FF0BEC0A0F0CC
:10151800BFC0A1F098C0A2F099C0A3F09AC0A4F0EF
:1015280087DD9FC0BDF0A0C0BEF0A1C0BFF005D050
:101538000001BD6BBE6B7F0EBF6FBDC09FF0BEC00C
:10154800A0F0BFC0A1F00001A26B200EA36F820E15
:10155800A46F97EC06F0B8DD9FC0BBF0A0C0BCF04C
:10156800020E0001C46FB4D600016F6B8CA04ED080
:10157800060E0001C26307D06F53D8B419D06F515B
:10158800050AD8B415D00C0E0001C26306D06F4D01
:101598000FD06F51040AD8B40BD0140E0001C263E7
:1015A800E5D76F51020AD8B403D0030E6F63DED7B4
:1015B800020E00019D6F0A0E26EC06F09FC08AF00D
:1015C800A0C08BF0EA6AD89000016F357E0FE96EF3
:1015D8008AC0EEFF8BC0EEFF6F2B140EC263C6D716
:1015E800030E6F63C3D79CEC00F09CEC00F09CECFE
:1015F80000F09CEC00F09CEC00F09CEC00F09CEC03
:1016080000F09CEC00F09CEC00F0B0D7030E000159
:10161800C46F050E6F615CD6020EC46F59D6000107
:10162800926B936B6D6B060E00016D612FD0EA6AA9
:10163800D8906D357E0FE96EEECF8AF0EECF8BF045
:10164800D8906D35850F3AD900018C6F0B00F55095
:101658008D6F8A518C5D8B518D59D8B008D08C51C3
:101668008A5D8E6F8D518B598F6F978B08D00001D3
:101678008A518C5D8E6F8B518D598F6F979B0001AE
:101688008E5192278F5193236D2BCDD70001925104
:101698009E6F93519F6FA06B100E9D6F00019E3738
:1016A8009F37A037D8B004D0060EA05DD8A004D0CC
:1016B800060E0001A05FD8800001923793379D2F56
:1016C800EDD7040EC46F04D6010E00019D6F0A0EFB
:1016D80026EC06F09FC09BF0A0C09CF0120E000103
:1016E8009B5D030E9C59D8A003D0010E946F58D06F
:1016F800FB0E00019B5D020E9C59D8A009D0070E75
:101708009B5D030E9C59D8B003D0020E946F48D04D
:10171800E70E00019B5D020E9C59D8A009D0F80E77
:101728009B5D020E9C59D8B003D0030E946F38D03D
:10173800D30E00019B5D020E9C59D8A009D0E40E7F
:101748009B5D020E9C59D8B003D0040E946F28D02C
:10175800C70E00019B5D020E9C59D8A009D0D00E7F
:101768009B5D020E9C59D8B003D0050E946F18D01B
:10177800C50E00019B5D020E9C59D8B011D0952B67
:10178800060E956102D0060E946F060E000195654F
:1017980002D0070E946F0A0E0001956301D0956B75
:1017A800050E0001C46F94D5000197A72CD0030E35
:1017B8009F6F010EA06F76C0A1F077C0A2F0D9ECA0
:1017C80003F0030E00019F6F060EA06F78C0A1F012
:1017D80079C0A2F0D9EC03F0030E00019F6F0B0E45
:1017E800A06F7AC0A1F07BC0A2F0D9EC03F0040E80
:1017F80000019F6F100EA06F90C0A1F091C0A2F0E1
:10180800D9EC03F03FD0BDC09FF0BEC0A0F0BFC070
:10181800A1F00001A26B200EA36F820EA46F97ECBB
:1018280006F052DC9FC09DF0A0C09EF0040E00019F
:101838009F6F060EA06F9DC0A1F09EC0A2F0D9ECCC
:1018480003F0020E00019F6F010EA06F70C0A1F09F
:1018580071C0A2F0D9EC03F0020E00019F6F060ED2
:10186800A06F72C0A1F073C0A2F0D9EC03F0020E11
:1018780000019F6F0B0EA06F74C0A1F075C0A2F09D
:10188800D9EC03F000019777C46B22D5400E9B6E0C
:101898007F0ED06E700ED36E070E7E6E0F0E926E98
:1018A800936A946A956A8A6A826A836A090ECA6E1A
:1018B800C70ECB6E8C0EBD6EB76A12000001696F41
:1018C8006951DC0FF66E180EF76AF722F86A0800FD
:1018D800F5501200000810171F272F363D444B51B2
:1018E800575D62676C707377797B7D7E7F800C10A3
:1018F80008041B040403EEFFFFFFFFFFFFFFEEFFDA
:10190800F1FFFFFFFFFFEEFFF1F1FFFFFFFFEEFF2B
:10191800F1F1F1FFFFFFEEFFF1F1F1F1FFFFEEFF53
:10192800F1F1F1F1F1FF00000000000000004F4E5E
:1019380044554C41444F52203530485A2020627952
:1019480020564143564D41583A444946463702705D
:1019580002D5020D03E00231025802EE028403842C
:0619680003EE025802002C
:020000040030CA
:08000000FF080116FF8881FFD3
:00000001FF
