:020000040000FA
:0400000020EF05F0F8
:10000800D8CF60F0E0CF61F00001626FF3CF63F00A
:10001800F4CF64F0F6CF65F0F7CF66F0F8CF67F06D
:10002800F5CF68F08B709EA24DD01D0ECA6E9E92C1
:10003800010E786F070E0001786104D072377337AC
:10004800782BF8D773C0BEFF000172AFBD9A72BF9C
:10005800BD8A72ADBD9872BDBD8871A107D0180E5A
:10006800776502D0719102D00001772B000171A150
:10007800770700017753D8A415D09EA2FED79E9289
:100088000D0ECA6EBE6ABD9ABD989EA2FED79E92FC
:10009800050ECA6EBE6ABD9ABD988C70000171814A
:1000A800010E776F000177519EEC05F00001766F25
:1000B80076517403F3CF72F0F4CF73F07651750371
:1000C800F350732763C0F3FF64C0F4FF65C0F6FF05
:1000D80066C0F7FF67C0F8FF68C0F5FF000162510E
:1000E80061C0E0FF60C0D8FF10000B0E7F6E0400F7
:1000F8007F2E7BEF00F004001200170E6F6F0400D4
:100108006F2F83EF00F089EF00F004001200060E55
:100118006F6FCF0E706F0400702F8FEF00F06F2F8E
:100128008DEF00F098EF00F004001200EF0E7F6EE4
:10013800E80E7F6E0400A1EF00F0A3EF00F00400CA
:100148007F2E9EEF00F07F2E9CEF00F0ACEF00F0CA
:10015800AEEF00F0B0EF00F004001200160E7F6E54
:10016800860E7F6ED30E7F6E04007F2EB8EF00F0F0
:100178007F2EB6EF00F07F2EB4EF00F0C4EF00F052
:1001880004001200120000016E6F819800006EA931
:1001980081906EB9818000006EAB81926EBB8182C6
:1001A80000006EAD81946EBD818400006EAF8196B3
:1001B8006EBF81860000818AA0DF819A120000014B
:1001C8006E6F6EA981906EB9818000006EAB8192CE
:1001D8006EBB818200006EAD81946EBD818400008B
:1001E8006EAF81966EBF818692DF819886DF818AA5
:1001F80084DF819A8CDF8BDF00016E3B6EA98190D2
:100208006EB9818000006EAB81926EBB8182000066
:100218006EAD81946EBD818400006EAF81966EBF15
:100228008186000074DF819868DF818A66DF819AA1
:100238006EDF6DD77F6E7FA881907FB881800000C8
:100248007FAA81927FBA818200007FAC81947FBCB3
:10025800818400007FAE81967FBE81860000818800
:100268004CDF818A4ADF819A010E7F6E070E7F601C
:1002780003D043DF7F2AFAD77F3A7FA881907FB8DF
:10028800818000007FAA81927FBA818200007FACC2
:1002980081947FBC818400007FAE81967FBE818679
:1002A800000035DF818833DF818A27DF819A010EDC
:1002B8007F6E070E7F6003D020DF7F2AFAD70C0EEF
:1002C8007ED77F6E300E7F267FA881907FB8818091
:1002D80000007FAA81927FBA818200007FAC81945E
:1002E8007FBC818400007FAE81967FBE818600003E
:1002F800818803DF818A01DF819A010E7F6E070EF4
:100308007F6003D0FADE7F2AFAD77F3A7FA88190F0
:100318007FB8818000007FAA81927FBA8182000025
:100328007FAC81947FBC818400007FAE81967FBEC4
:100338008186EDDE8188EBDE818ADFDE819A010E1F
:100348007F6E070E7F6003D0D8DE7F2AFAD70C0EA7
:1003580036D70400010E00016D6F150E00016D61A6
:1003680004D0D5DE00016D2BF8D7300E0CDF010E5E
:1003780000016D6F060E00016D6104D0C8DE00013A
:100388006D2BF8D7300EFFDE010E00016D6F0B0EDE
:1003980000016D6104D0B1DE00016D2BF8D7300E7D
:1003A800F2DE010E00016D6F0B0E00016D6104D0CD
:1003B800A4DE00016D2BF8D7200EE5DE280EFFDE47
:1003C8000C0EFDDE020EFBD67F6E7F50010AD8B4FC
:1003D8000AD0030AD8B40BD0010AD8B40CD0070A43
:1003E800D8B40DD012D07F0E7F24E9DE0ED0BF0E18
:1003F8007F24E5DE0AD0930E7F24E1DE06D0D30EFB
:100408007F24DDDE02D00C0EDAD612007F6E7F501C
:10041800010AD8B40AD0030AD8B40AD0010AD8B459
:100428000AD0070AD8B40AD00BD0800EC8DE08D08C
:10043800C00EC5DE05D0940EC2DE02D0D40EBFDEDB
:10044800010E7F6E150E7F6004D0200EF3DE7F2A2A
:10045800F9D70C0EB4D6010EB2D67F50010AD8B423
:100468000AD0030AD8B40BD0010AD8B40CD0070AB2
:10047800D8B40DD012D07F0E7F24A1DE0ED0BF0ECF
:100488007F249DDE0AD0930E7F2499DE06D0D30EFA
:100498007F2495DE02D00C0E92DE7FB011D0020EC2
:1004A8007F6E7F6A7F6AE80E7F5C030E7F58D8A054
:1004B8004DD03E0EBFDE450EBDDE720EBBDE3BD11B
:1004C800010E7F6E100E7F5C270E7F58D8A007D0D4
:1004D8003E0EB0DE450EAEDE720EACDE2CD17FCF06
:1004E8007FFF7FCF7FFF7F507F6E7F507F6E7F6A59
:1004F8007F6A100E7F6E7F367F367F367F36E80E36
:100508007F5C030E7F58D8A005D0E80E7F5E030EEF
:100518007F5AD8807F367F367F2EEDD77F507F6E0B
:100528007F507F6E7F6A7F6A100E7F6E7F367F36C0
:100538007F367F36E80E7F5C030E7F58D8A004D044
:10054800E80E7F5E030E7F5A7F2EF0D77F507F6EB6
:100558007F507F6E7F6A100E7F6E7F367F367F36C4
:10056800D8B004D0640E7F5CD8A003D0640E7F5E40
:10057800D8807F367F367F2EF0D77F507F6E7F50B2
:100588007F6E7F6A100E7F6E7F367F367F36D8B0DB
:1005980004D0640E7F5CD8A002D0640E7F5E7F2EEC
:1005A800F3D77F507F6E7F6A080E7F6E7F367F3667
:1005B8000A0E7F5CD8A003D00A0E7F5ED8807F36F3
:1005C8007F2EF4D77F507F6E7F6A080E7F6E7F364E
:1005D8007F360A0E7F5CD8A002D00A0E7F5E7F2E7F
:1005E800F6D77FCF7FFF070E7F60A5D004007F2C52
:1005F8000BD07F507F10D8A405D07FB003D0200E39
:100608007F6E02D07FCF7FFF020E7F620FD07F50B8
:100618007F10D8A409D07F507F10D8A405D07FB010
:1006280003D0200E7F6E02D07FCF7FFF030E7F6244
:100638000AD07FA007D07FB003D02E0E7F6E03D0E4
:100648007F2A01D07F2A040E7F6212D07F507F104C
:10065800D8A40CD07F507F10D8A408D07F50D8A43D
:1006680005D07FB003D0200E7F6E02D07FCF7FFFF2
:10067800050E7F620AD07FB007D07FB003D02E0E60
:100688007F6E03D07F2A01D07F2A060E7F6202D0B8
:100698007FCF7FFF7F502E0AD8B406D07F50200A24
:1006A800D8B402D0300E7F267FA881907FB8818091
:1006B80000007FAA81927FBA818200007FAC81947A
:1006C8007FBC818400007FAE81967FBE818600005A
:1006D800818813DD818A11DD819A010E7F6E070EF4
:1006E8007F6003D00ADD7F2AFAD77F3A7FA88190FE
:1006F8007FB8818000007FAA81927FBA8182000042
:100708007FAC81947FBC818400007FAE81967FBEE0
:100718008186FDDC8188FBDC818AEFDC819A010E11
:100728007F6E070E7F6003D0E8DC7F2AFAD70C0EB5
:1007380046DD7F2A58D712007F50010AD8B40AD064
:10074800030AD8B40BD0010AD8B40CD0070AD8B41D
:100758000DD012D07F0E7F2432DD0ED0BF0E7F2445
:100768002EDD0AD0930E7F242ADD06D0D30E7F24F7
:1007780026DD02D00C0E23DD7FCF7FFF7FCF7FFFEA
:100788007F507F6E7F507F6E7F6A7F6A100E7F6E0C
:100798007F367F367F367F36100E7F5C270E7F5878
:1007A800D8A005D0100E7F5E270E7F5AD8807F36DE
:1007B8007F367F2EEDD77F507F6E7F507F6E7F6AAA
:1007C8007F6A100E7F6E7F367F367F367F36100E3B
:1007D8007F5C270E7F58D8A004D0100E7F5E270EAE
:1007E8007F5A7F2EF0D77F507F6E7F507F6E7F6A53
:1007F8007F6A100E7F6E7F367F367F367F36E80E33
:100808007F5C030E7F58D8A005D0E80E7F5E030EEC
:100818007F5AD8807F367F367F2EEDD77F507F6E08
:100828007F507F6E7F6A7F6A100E7F6E7F367F36BD
:100838007F367F36E80E7F5C030E7F58D8A004D041
:10084800E80E7F5E030E7F5A7F2EF0D77F507F6EB3
:100858007F507F6E7F6A100E7F6E7F367F367F36C1
:10086800D8B004D0640E7F5CD8A003D0640E7F5E3D
:10087800D8807F367F367F2EF0D77F507F6E7F50AF
:100888007F6E7F6A100E7F6E7F367F367F36D8B0D8
:1008980004D0640E7F5CD8A002D0640E7F5E7F2EE9
:1008A800F3D77F507F6E7F6A080E7F6E7F367F3664
:1008B8000A0E7F5CD8A003D00A0E7F5ED8807F36F0
:1008C8007F2EF4D77F507F6E7F6A080E7F6E7F364B
:1008D8007F360A0E7F5CD8A002D00A0E7F5E7F2E7C
:1008E800F6D77F6A050E7F60A6D07F50D8B40DD0AA
:1008F800010AD8B414D0030AD8B41FD0010AD8B456
:100908002ED0070AD8B440D041D07F507F10D8A449
:1009180003D0200E7F6E3AD07FCF7FFF37D07F5035
:100928007F10D8A407D07F507F10D8A403D0200E02
:100938007F6E2CD07FCF7FFF29D07F507F10D8A427
:100948000BD07F507F10D8A407D07F507F10D8A439
:1009580003D0200E7F6E1AD07FCF7FFF17D07F5035
:100968007F10D8A40ED07F507F10D8A40AD07F5013
:10097800D8A407D07F507F10D8A403D0200E7F6E54
:1009880005D07FCF7FFF02D07FCF7FFF7F50200A27
:10099800D8B402D0300E7F267FA881907FB881809E
:1009A80000007FAA81927FBA818200007FAC819487
:1009B8007FBC818400007FAE81967FBE8186000067
:1009C800818881EC00F0818A81EC00F0819A010E27
:1009D8007F6E070E7F6004D081EC00F07F2AF9D784
:1009E8007F3A7FA881907FB8818000007FAA81929A
:1009F8007FBA818200007FAC81947FBC8184000033
:100A08007FAE81967FBE81868BEC00F081888BEC6F
:100A180000F0818A81EC00F0819A010E7F6E070E4A
:100A28007F6004D081EC00F07F2AF9D70C0EE3EC4C
:100A380000F07F2A57D71200F29E4FD88ADC410E69
:100A4800D56E040EF16EF2948C90040E0001746F52
:100A5800756B400EF26E776B726B736B7181010E62
:100A6800786F070E0001786104D072377337782BDE
:100A7800F8D773C0BEFF000172AFBD9A72BFBD8ABE
:100A880072ADBD9872BDBD889E929D82F28ECA8459
:100A9800772B77514FD80001766F76517403F3CFD7
:100AA80072F0F4CF73F076517503F3507327400E4C
:100AB8009B6E7F0ED06E700ED36E8272FED79280C0
:100AC800810EC26EC00EC16E81EC00F0C282C2B24D
:100AD800FED7C4CF7FFF7F501200400E9B6E7F0E63
:100AE800D06E700ED36E010E926E936A946A956AF8
:100AF800816A826A836A090ECA6EC70ECB6E8C0E33
:100B0800BD6EB76A1200010E0001786F070E000172
:100B1800786104D072377337782BF8D773C0BEFF6B
:100B2800000172AFBD9A72BFBD8A72ADBD9872BD29
:100B3800BD8812000001696F6951540FF66E0B0EE3
:100B4800F76AF722F86A0800F55012000008101733
:100B58001F272F363D444B51575D62676C70737782
:060B6800797B7D7E7F8099
:020000040030CA
:08000000FF080116FF8885FFCF
:00000001FF
